{
  "contractName": "Oracle1",
  "abi": [
    {
      "inputs": [
        {
          "internalType": "uint256",
          "name": "outcomes",
          "type": "uint256"
        }
      ],
      "stateMutability": "nonpayable",
      "type": "constructor"
    },
    {
      "inputs": [
        {
          "internalType": "uint256",
          "name": "won1",
          "type": "uint256"
        }
      ],
      "name": "report1",
      "outputs": [],
      "stateMutability": "nonpayable",
      "type": "function"
    },
    {
      "inputs": [
        {
          "internalType": "uint256",
          "name": "won2",
          "type": "uint256"
        }
      ],
      "name": "report2",
      "outputs": [],
      "stateMutability": "nonpayable",
      "type": "function"
    },
    {
      "inputs": [
        {
          "internalType": "uint256",
          "name": "won3",
          "type": "uint256"
        }
      ],
      "name": "report3",
      "outputs": [],
      "stateMutability": "nonpayable",
      "type": "function"
    },
    {
      "inputs": [],
      "name": "clear",
      "outputs": [],
      "stateMutability": "nonpayable",
      "type": "function"
    },
    {
      "inputs": [
        {
          "internalType": "uint256",
          "name": "first",
          "type": "uint256"
        },
        {
          "internalType": "uint256",
          "name": "second",
          "type": "uint256"
        },
        {
          "internalType": "uint256",
          "name": "third",
          "type": "uint256"
        }
      ],
      "name": "winner",
      "outputs": [
        {
          "internalType": "uint256",
          "name": "",
          "type": "uint256"
        }
      ],
      "stateMutability": "nonpayable",
      "type": "function"
    }
  ],
  "bytecode": "0x608060405234801561001057600080fd5b50604051610d8f380380610d8f8339818101604052810190610032919061011a565b8060008190555060006004600060038110610076577f4e487b7100000000000000000000000000000000000000000000000000000000600052603260045260246000fd5b0181905550600060046001600381106100b8577f4e487b7100000000000000000000000000000000000000000000000000000000600052603260045260246000fd5b0181905550600060046002600381106100fa577f4e487b7100000000000000000000000000000000000000000000000000000000600052603260045260246000fd5b018190555050610164565b6000815190506101148161014d565b92915050565b60006020828403121561012c57600080fd5b600061013a84828501610105565b91505092915050565b6000819050919050565b61015681610143565b811461016157600080fd5b50565b610c1c806101736000396000f3fe608060405234801561001057600080fd5b50600436106100575760003560e01c806311e85e471461005c578063313e488d1461008c57806336166b6f146100a857806352efea6e146100c4578063b0f7da64146100ce575b600080fd5b610076600480360381019061007191906109eb565b6100ea565b6040516100839190610acf565b60405180910390f35b6100a660048036038101906100a191906109c2565b610416565b005b6100c260048036038101906100bd91906109c2565b61056e565b005b6100cc6106c7565b005b6100e860048036038101906100e391906109c2565b610854565b005b6000806000805467ffffffffffffffff811115610130577f4e487b7100000000000000000000000000000000000000000000000000000000600052604160045260246000fd5b60405190808252806020026020018201604052801561015e5781602001602082028036833780820191505090505b50905080868151811061019a577f4e487b7100000000000000000000000000000000000000000000000000000000600052603260045260246000fd5b6020026020010180518091906101af90610b05565b815250508085815181106101ec577f4e487b7100000000000000000000000000000000000000000000000000000000600052603260045260246000fd5b60200260200101805180919061020190610b05565b8152505080848151811061023e577f4e487b7100000000000000000000000000000000000000000000000000000000600052603260045260246000fd5b60200260200101805180919061025390610b05565b8152505080600181518110610291577f4e487b7100000000000000000000000000000000000000000000000000000000600052603260045260246000fd5b6020026020010151816000815181106102d3577f4e487b7100000000000000000000000000000000000000000000000000000000600052603260045260246000fd5b6020026020010151111561032a578060008151811061031b577f4e487b7100000000000000000000000000000000000000000000000000000000600052603260045260246000fd5b60200260200101519150610402565b80600181518110610364577f4e487b7100000000000000000000000000000000000000000000000000000000600052603260045260246000fd5b6020026020010151816000815181106103a6577f4e487b7100000000000000000000000000000000000000000000000000000000600052603260045260246000fd5b602002602001015110156103fd57806001815181106103ee577f4e487b7100000000000000000000000000000000000000000000000000000000600052603260045260246000fd5b60200260200101519150610401565b8591505b5b61040a6106c7565b81925050509392505050565b600054811061045a576040517f08c379a000000000000000000000000000000000000000000000000000000000815260040161045190610a8f565b60405180910390fd5b60006004600160038110610497577f4e487b7100000000000000000000000000000000000000000000000000000000600052603260045260246000fd5b0154146104d9576040517f08c379a00000000000000000000000000000000000000000000000000000000081526004016104d090610aaf565b60405180910390fd5b6004600160038110610514577f4e487b7100000000000000000000000000000000000000000000000000000000600052603260045260246000fd5b01600081548092919061052690610b05565b91905055508060018060038110610566577f4e487b7100000000000000000000000000000000000000000000000000000000600052603260045260246000fd5b018190555050565b60005481106105b2576040517f08c379a00000000000000000000000000000000000000000000000000000000081526004016105a990610a8f565b60405180910390fd5b600060046002600381106105ef577f4e487b7100000000000000000000000000000000000000000000000000000000600052603260045260246000fd5b015414610631576040517f08c379a000000000000000000000000000000000000000000000000000000000815260040161062890610aaf565b60405180910390fd5b600460026003811061066c577f4e487b7100000000000000000000000000000000000000000000000000000000600052603260045260246000fd5b01600081548092919061067e90610b05565b91905055508060016002600381106106bf577f4e487b7100000000000000000000000000000000000000000000000000000000600052603260045260246000fd5b018190555050565b60006001600060038110610704577f4e487b7100000000000000000000000000000000000000000000000000000000600052603260045260246000fd5b0181905550600060018060038110610745577f4e487b7100000000000000000000000000000000000000000000000000000000600052603260045260246000fd5b018190555060006001600260038110610787577f4e487b7100000000000000000000000000000000000000000000000000000000600052603260045260246000fd5b0181905550600060046000600381106107c9577f4e487b7100000000000000000000000000000000000000000000000000000000600052603260045260246000fd5b01819055506000600460016003811061080b577f4e487b7100000000000000000000000000000000000000000000000000000000600052603260045260246000fd5b01819055506000600460026003811061084d577f4e487b7100000000000000000000000000000000000000000000000000000000600052603260045260246000fd5b0181905550565b6000548110610898576040517f08c379a000000000000000000000000000000000000000000000000000000000815260040161088f90610a8f565b60405180910390fd5b600060046000600381106108d5577f4e487b7100000000000000000000000000000000000000000000000000000000600052603260045260246000fd5b015414610917576040517f08c379a000000000000000000000000000000000000000000000000000000000815260040161090e90610aaf565b60405180910390fd5b6004600060038110610952577f4e487b7100000000000000000000000000000000000000000000000000000000600052603260045260246000fd5b01600081548092919061096490610b05565b91905055508060016000600381106109a5577f4e487b7100000000000000000000000000000000000000000000000000000000600052603260045260246000fd5b018190555050565b6000813590506109bc81610bcf565b92915050565b6000602082840312156109d457600080fd5b60006109e2848285016109ad565b91505092915050565b600080600060608486031215610a0057600080fd5b6000610a0e868287016109ad565b9350506020610a1f868287016109ad565b9250506040610a30868287016109ad565b9150509250925092565b6000610a47601483610aea565b9150610a5282610b7d565b602082019050919050565b6000610a6a601883610aea565b9150610a7582610ba6565b602082019050919050565b610a8981610afb565b82525050565b60006020820190508181036000830152610aa881610a3a565b9050919050565b60006020820190508181036000830152610ac881610a5d565b9050919050565b6000602082019050610ae46000830184610a80565b92915050565b600082825260208201905092915050565b6000819050919050565b6000610b1082610afb565b91507fffffffffffffffffffffffffffffffffffffffffffffffffffffffffffffffff821415610b4357610b42610b4e565b5b600182019050919050565b7f4e487b7100000000000000000000000000000000000000000000000000000000600052601160045260246000fd5b7f526573756c74206f7574206f6620626f756e6473000000000000000000000000600082015250565b7f4f6e6c79206f6e6520696e707574207065726d69747465640000000000000000600082015250565b610bd881610afb565b8114610be357600080fd5b5056fea26469706673582212208fbedaf56c9a0e5f4d28720658731663eb79b1b021074838e8e7cef108a9f61d64736f6c63430008010033",
  "immutableReferences": {},
  "source": "// SPDX-License-Identifier: GPL-3.0\n\npragma solidity >=0.7.0 <0.9.0;\n\ncontract PredictionMarket {\n    uint constant NUM_OUTCOMES = 2;\n    uint constant INF = 1<<200;\n    uint constant CONTRACT_VALUE = 10 ether;\n    \n    struct Order {\n        uint quantity;\n        uint price;\n        address addr;\n        uint outcome;\n    }\n\n    Order[] orders;\n    mapping (address => uint[]) public all_orders;\n    uint[][NUM_OUTCOMES] orderbooks;\n    mapping (address => uint[NUM_OUTCOMES]) pos_size;\n    address oracle_address;\n    uint public temp;\n    \n    constructor(address oracle_addr) {\n        oracle_address = oracle_addr;\n    }\n    \n    // Additional functions for front end\n    function getOrders(address addr) public view returns(uint[] memory) {\n        return all_orders[addr];\n    }\n    function getBidQuant(uint id) public view returns(uint) {\n        return orders[id].quantity;\n    }\n    function getBidPrice(uint id) public view returns(uint) {\n        return orders[id].price;\n    }\n    function getBidOutcome(uint id) public view returns(uint) {\n        return orders[id].outcome;\n    }\n\n    function math_min(uint x, uint y) private returns (uint) {\n        return x >= y ? y : x;\n    }\n    function higher_priority(uint i, uint j) private returns (bool) {\n        assert(i < orders.length);\n        assert(j < orders.length);\n        assert(i != j);\n        if (orders[i].price == orders[j].price) return i < j;\n        return orders[i].price > orders[j].price;\n    }\n    // orderbook uses heaps\n    function orderbooks_swap(uint outcome, uint i, uint j) private {\n        assert(outcome < NUM_OUTCOMES);\n        assert(i < orderbooks[outcome].length);\n        assert(j < orderbooks[outcome].length);\n        assert(i != j);\n        uint temp = orderbooks[outcome][i];\n        orderbooks[outcome][i] = orderbooks[outcome][j];\n        orderbooks[outcome][j] = temp;\n    }\n    function orderbooks_add(uint outcome, uint id) private {\n        assert(id < orders.length);\n        assert(outcome < NUM_OUTCOMES);\n        assert(orders[id].outcome == outcome);\n        orderbooks[outcome].push(id);\n        uint i = orderbooks[outcome].length - 1;\n        while(i > 0) {\n            uint par_i = (i - 1) >> 1;\n            if (higher_priority(orderbooks[outcome][par_i], orderbooks[outcome][i])) break;\n            orderbooks_swap(outcome, par_i, i);\n            i = par_i;\n        }\n    }\n    function orderbooks_emp(uint outcome) private returns (bool){\n        assert(outcome < NUM_OUTCOMES);\n        return orderbooks[outcome].length == 0;\n    }\n    function orderbooks_top_quantity(uint outcome) private returns (uint) {\n        assert(outcome < NUM_OUTCOMES);\n        assert(orderbooks[outcome].length > 0);\n        return orders[orderbooks[outcome][0]].quantity;\n    }\n    function orderbooks_top_remove_quantity(uint outcome, uint delta) private {\n        assert(outcome < NUM_OUTCOMES);\n        assert(orderbooks[outcome].length > 0);\n        orders[orderbooks[outcome][0]].quantity -= delta;\n    }\n    function orderbooks_top_price(uint outcome) private returns (uint) {\n        assert(outcome < NUM_OUTCOMES);\n        assert(orderbooks[outcome].length > 0);\n        return orders[orderbooks[outcome][0]].price;\n    }\n    function orderbooks_top_address(uint outcome) private returns (address) {\n        assert(outcome < NUM_OUTCOMES);\n        assert(orderbooks[outcome].length > 0);\n        return orders[orderbooks[outcome][0]].addr;\n    }\n    function orderbooks_pop(uint outcome) private {\n        assert(outcome < NUM_OUTCOMES);\n        assert(!orderbooks_emp(outcome));\n        if (orderbooks[outcome].length == 1) {\n            orderbooks[outcome].pop();\n        } else {\n            orderbooks_swap(outcome, 0, orderbooks[outcome].length - 1);\n            orderbooks[outcome].pop();\n            \n            uint i = 0;\n            uint child_i = 1; \n            while(child_i < orderbooks[outcome].length) {\n              if (child_i + 1 < orderbooks[outcome].length && higher_priority(orderbooks[outcome][child_i + 1], orderbooks[outcome][child_i]))\n                child_i++;\n              if (higher_priority(orderbooks[outcome][i], orderbooks[outcome][child_i])) break;\n              orderbooks_swap(outcome, i, child_i);\n              i = child_i;\n              child_i = (i << 1) + 1;\n            }            \n        }\n    }\n    // matching engine\n    function try_matching() private returns (bool) {\n        for (uint outcome = 0; outcome < NUM_OUTCOMES; outcome++) {\n          while(!orderbooks_emp(outcome) && orderbooks_top_quantity(outcome) == 0)\n            orderbooks_pop(outcome);\n          assert(orderbooks_emp(outcome) || orderbooks_top_quantity(outcome) > 0);\n        }\n    \n        uint sum_prices = 0;\n        uint min_quantity = INF;\n    \n        for (uint outcome = 0; outcome < NUM_OUTCOMES; outcome++) if (!orderbooks_emp(outcome)) {\n          sum_prices += orderbooks_top_price(outcome);\n          min_quantity = math_min(min_quantity, orderbooks_top_quantity(outcome));\n        }\n    \n        if (sum_prices == 0 || min_quantity == INF) {\n          assert(sum_prices == 0 && min_quantity == INF);\n          return false;\n        }\n        if (sum_prices < CONTRACT_VALUE) {\n          return false;\n        }\n        \n        for (uint outcome = 0; outcome < NUM_OUTCOMES; outcome++) if (!orderbooks_emp(outcome)) {\n          orderbooks_top_remove_quantity(outcome, min_quantity);\n          pos_size[orderbooks_top_address(outcome)][outcome] += min_quantity;\n        }\n    \n        return true;\n    }\n    // submit a new bid for any outcome\n    // price is in ether\n    function bid(uint price, uint quantity, uint outcome) public payable returns (uint) {\n        price = price * 1e18;\n        require(price > 0, 'price must be positive');\n        require(quantity > 0, 'quantity must be positive');\n        require(outcome < NUM_OUTCOMES, 'outcome is between 0 ... NUM_OUTCOMES-1');\n        require(msg.value == price * quantity, 'provide value equal to price x quantity');\n    \n        uint id = orders.length;\n        orders.push(Order({\n            quantity: quantity,\n            price: price,\n            addr: msg.sender,\n            outcome: outcome}));\n        all_orders[msg.sender].push(id);\n        orderbooks_add(outcome, id);\n    \n        while(try_matching()) {}\n        \n        return id;\n    }\n    // cancel part of one of your unfilled orders\n    function cancel(uint id, uint quantity) public returns (uint) {\n        require(id < orders.length);\n        require(orders[id].addr == msg.sender);\n        \n        quantity = math_min(quantity, orders[id].quantity);\n        orders[id].quantity -= quantity;\n        uint to_refund = orders[id].price * quantity;\n        \n        assert(address(this).balance >= to_refund);\n        payable(msg.sender).transfer(to_refund);\n        return to_refund;\n    }\n    // cancel all your unfilled orders\n    function cancelAll() public returns (uint) {\n        uint to_refund = 0;\n        for (uint i = 0; i < all_orders[msg.sender].length; i++)\n            to_refund += cancel(all_orders[msg.sender][i], INF);\n        return to_refund;\n    }\n    // redeem any money you won if you bet correctly\n    // call smart smart contarct to get winning outcome\n    function redeem(uint winner) public returns (uint) {\n        uint winning_outcome = winner;\n        require(winning_outcome < NUM_OUTCOMES);\n        uint winning_shares = pos_size[msg.sender][winning_outcome];\n        temp = pos_size[msg.sender][winning_outcome];\n        pos_size[msg.sender][winning_outcome] = 0;\n        uint winnings = winning_shares * CONTRACT_VALUE;\n        assert(address(this).balance >= winnings);\n        payable(msg.sender).transfer(winnings);\n        return winnings;\n    }\n\n    function returnTemp() public view returns (uint) {\n        return temp;\n    }\n}\n\ncontract Oracle1 {\n    uint NUM_OUTCOMES;\n    uint[3] private reports;\n    uint[3] private inputs;\n\n    // outcomers flexible\n    constructor(uint outcomes) {\n        NUM_OUTCOMES = outcomes;\n        inputs[0] = 0;\n        inputs[1] = 0;\n        inputs[2] = 0;\n    }\n\n    // determine winner through external oracles\n    function report1(uint won1) public {\n        require(won1 < NUM_OUTCOMES, \"Result out of bounds\");\n        require(inputs[0] == 0, \"Only one input permitted\");\n        inputs[0]++;\n        reports[0] = won1;\n    }\n\n    // ensure that can't change report after the fact\n    function report2(uint won2) public {\n        require(won2 < NUM_OUTCOMES, \"Result out of bounds\");\n        require(inputs[1] == 0, \"Only one input permitted\");\n        inputs[1]++;\n        reports[1] = won2;\n    }\n\n    function report3(uint won3) public {\n        require(won3 < NUM_OUTCOMES, \"Result out of bounds\");\n        require(inputs[2] == 0, \"Only one input permitted\");\n        inputs[2]++;\n        reports[2] = won3;\n    }\n\n    function clear() public {\n        reports[0] = 0;\n        reports[1] = 0;\n        reports[2] = 0;\n        inputs[0] = 0;\n        inputs[1] = 0;\n        inputs[2] = 0;\n    }\n\n    // most often as consensus - defaults to report1 if inconclusive\n    function winner(uint first, uint second, uint third) public returns(uint) {\n        uint modeValue;\n        uint[] memory count = new uint[](NUM_OUTCOMES); \n        \n        count[first]++;\n        count[second]++;\n        count[third]++;\n\n        if (count[0] > count[1]) {\n            modeValue = count[0];\n        }\n        else if (count[0] < count[1]) {\n            modeValue = count[1];\n        }\n        else {\n            modeValue = first;\n        }\n\n        clear();\n\n        return modeValue;\n    }       \n}",
  "sourcePath": "/Users/benshi/Documents/BettingApp2/contracts/PredictionMarket.sol",
  "compiler": {
    "name": "solc",
    "version": "0.8.1+commit.df193b15.Emscripten.clang"
  },
  "schemaVersion": "3.4.3",
  "updatedAt": "2021-12-02T22:22:30.539Z",
  "networkType": "ethereum",
  "devdoc": {
    "kind": "dev",
    "methods": {},
    "version": 1
  },
  "userdoc": {
    "kind": "user",
    "methods": {},
    "version": 1
  }
}