{
  "contractName": "Oracle1",
  "abi": [
    {
      "inputs": [
        {
          "internalType": "uint256",
          "name": "outcomes",
          "type": "uint256"
        },
        {
          "internalType": "address",
          "name": "_owner",
          "type": "address"
        }
      ],
      "stateMutability": "nonpayable",
      "type": "constructor"
    },
    {
      "inputs": [
        {
          "internalType": "uint256",
          "name": "won1",
          "type": "uint256"
        }
      ],
      "name": "report1",
      "outputs": [],
      "stateMutability": "nonpayable",
      "type": "function"
    },
    {
      "inputs": [
        {
          "internalType": "uint256",
          "name": "won2",
          "type": "uint256"
        }
      ],
      "name": "report2",
      "outputs": [],
      "stateMutability": "nonpayable",
      "type": "function"
    },
    {
      "inputs": [
        {
          "internalType": "uint256",
          "name": "won3",
          "type": "uint256"
        }
      ],
      "name": "report3",
      "outputs": [],
      "stateMutability": "nonpayable",
      "type": "function"
    },
    {
      "inputs": [],
      "name": "clear",
      "outputs": [],
      "stateMutability": "nonpayable",
      "type": "function"
    },
    {
      "inputs": [],
      "name": "winner",
      "outputs": [
        {
          "internalType": "uint256",
          "name": "",
          "type": "uint256"
        }
      ],
      "stateMutability": "view",
      "type": "function"
    }
  ],
  "bytecode": "0x60806040523480156200001157600080fd5b50604051620016bb380380620016bb83398181016040528101906200003791906200032e565b8160008190555080600760006101000a81548173ffffffffffffffffffffffffffffffffffffffff021916908373ffffffffffffffffffffffffffffffffffffffff16021790555073583031d1113ad414f02576bd6afabfb3021402256004600060038110620000d0577f4e487b7100000000000000000000000000000000000000000000000000000000600052603260045260246000fd5b0160006101000a81548173ffffffffffffffffffffffffffffffffffffffff021916908373ffffffffffffffffffffffffffffffffffffffff16021790555073dd870fa1b7c4700f2bd7f44238821c26f7392148600460016003811062000160577f4e487b7100000000000000000000000000000000000000000000000000000000600052603260045260246000fd5b0160006101000a81548173ffffffffffffffffffffffffffffffffffffffff021916908373ffffffffffffffffffffffffffffffffffffffff16021790555073265a5c3dd46ec82e2744f1d0e9fb4ed75d56132a6004600260038110620001f0577f4e487b7100000000000000000000000000000000000000000000000000000000600052603260045260246000fd5b0160006101000a81548173ffffffffffffffffffffffffffffffffffffffff021916908373ffffffffffffffffffffffffffffffffffffffff160217905550600060086000600381106200026d577f4e487b7100000000000000000000000000000000000000000000000000000000600052603260045260246000fd5b018190555060006008600160038110620002b0577f4e487b7100000000000000000000000000000000000000000000000000000000600052603260045260246000fd5b018190555060006008600260038110620002f3577f4e487b7100000000000000000000000000000000000000000000000000000000600052603260045260246000fd5b01819055505050620003e1565b6000815190506200031181620003ad565b92915050565b6000815190506200032881620003c7565b92915050565b600080604083850312156200034257600080fd5b6000620003528582860162000317565b9250506020620003658582860162000300565b9150509250929050565b60006200037c8262000383565b9050919050565b600073ffffffffffffffffffffffffffffffffffffffff82169050919050565b6000819050919050565b620003b8816200036f565b8114620003c457600080fd5b50565b620003d281620003a3565b8114620003de57600080fd5b50565b6112ca80620003f16000396000f3fe608060405234801561001057600080fd5b50600436106100575760003560e01c8063313e488d1461005c57806336166b6f1461007857806352efea6e14610094578063b0f7da641461009e578063dfbf53ae146100ba575b600080fd5b61007660048036038101906100719190610d03565b6100d8565b005b610092600480360381019061008d9190610d03565b6102fa565b005b61009c61051d565b005b6100b860048036038101906100b39190610d03565b610683565b005b6100c26108a6565b6040516100cf9190610f96565b60405180910390f35b6004600160038110610113577f4e487b7100000000000000000000000000000000000000000000000000000000600052603260045260246000fd5b0160009054906101000a900473ffffffffffffffffffffffffffffffffffffffff1673ffffffffffffffffffffffffffffffffffffffff163373ffffffffffffffffffffffffffffffffffffffff16146101a2576040517f08c379a000000000000000000000000000000000000000000000000000000000815260040161019990610f56565b60405180910390fd5b60005481106101e6576040517f08c379a00000000000000000000000000000000000000000000000000000000081526004016101dd90610e96565b60405180910390fd5b60006008600160038110610223577f4e487b7100000000000000000000000000000000000000000000000000000000600052603260045260246000fd5b015414610265576040517f08c379a000000000000000000000000000000000000000000000000000000000815260040161025c90610eb6565b60405180910390fd5b60086001600381106102a0577f4e487b7100000000000000000000000000000000000000000000000000000000600052603260045260246000fd5b0160008154809291906102b290611022565b919050555080600180600381106102f2577f4e487b7100000000000000000000000000000000000000000000000000000000600052603260045260246000fd5b018190555050565b6004600260038110610335577f4e487b7100000000000000000000000000000000000000000000000000000000600052603260045260246000fd5b0160009054906101000a900473ffffffffffffffffffffffffffffffffffffffff1673ffffffffffffffffffffffffffffffffffffffff163373ffffffffffffffffffffffffffffffffffffffff16146103c4576040517f08c379a00000000000000000000000000000000000000000000000000000000081526004016103bb90610f76565b60405180910390fd5b6000548110610408576040517f08c379a00000000000000000000000000000000000000000000000000000000081526004016103ff90610e96565b60405180910390fd5b60006008600260038110610445577f4e487b7100000000000000000000000000000000000000000000000000000000600052603260045260246000fd5b015414610487576040517f08c379a000000000000000000000000000000000000000000000000000000000815260040161047e90610eb6565b60405180910390fd5b60086002600381106104c2577f4e487b7100000000000000000000000000000000000000000000000000000000600052603260045260246000fd5b0160008154809291906104d490611022565b9190505550806001600260038110610515577f4e487b7100000000000000000000000000000000000000000000000000000000600052603260045260246000fd5b018190555050565b600760009054906101000a900473ffffffffffffffffffffffffffffffffffffffff1673ffffffffffffffffffffffffffffffffffffffff163373ffffffffffffffffffffffffffffffffffffffff16146105ad576040517f08c379a00000000000000000000000000000000000000000000000000000000081526004016105a490610ef6565b60405180910390fd5b600160006105bb9190610cd9565b600060086000600381106105f8577f4e487b7100000000000000000000000000000000000000000000000000000000600052603260045260246000fd5b01819055506000600860016003811061063a577f4e487b7100000000000000000000000000000000000000000000000000000000600052603260045260246000fd5b01819055506000600860026003811061067c577f4e487b7100000000000000000000000000000000000000000000000000000000600052603260045260246000fd5b0181905550565b60046000600381106106be577f4e487b7100000000000000000000000000000000000000000000000000000000600052603260045260246000fd5b0160009054906101000a900473ffffffffffffffffffffffffffffffffffffffff1673ffffffffffffffffffffffffffffffffffffffff163373ffffffffffffffffffffffffffffffffffffffff161461074d576040517f08c379a000000000000000000000000000000000000000000000000000000000815260040161074490610e76565b60405180910390fd5b6000548110610791576040517f08c379a000000000000000000000000000000000000000000000000000000000815260040161078890610e96565b60405180910390fd5b600060086000600381106107ce577f4e487b7100000000000000000000000000000000000000000000000000000000600052603260045260246000fd5b015414610810576040517f08c379a000000000000000000000000000000000000000000000000000000000815260040161080790610eb6565b60405180910390fd5b600860006003811061084b577f4e487b7100000000000000000000000000000000000000000000000000000000600052603260045260246000fd5b01600081548092919061085d90611022565b919050555080600160006003811061089e577f4e487b7100000000000000000000000000000000000000000000000000000000600052603260045260246000fd5b018190555050565b6000600160086000600381106108e5577f4e487b7100000000000000000000000000000000000000000000000000000000600052603260045260246000fd5b015414610927576040517f08c379a000000000000000000000000000000000000000000000000000000000815260040161091e90610f36565b60405180910390fd5b60016008600160038110610964577f4e487b7100000000000000000000000000000000000000000000000000000000600052603260045260246000fd5b0154146109a6576040517f08c379a000000000000000000000000000000000000000000000000000000000815260040161099d90610f16565b60405180910390fd5b600160086002600381106109e3577f4e487b7100000000000000000000000000000000000000000000000000000000600052603260045260246000fd5b015414610a25576040517f08c379a0000000000000000000000000000000000000000000000000000000008152600401610a1c90610ed6565b60405180910390fd5b60008060005467ffffffffffffffff811115610a6a577f4e487b7100000000000000000000000000000000000000000000000000000000600052604160045260246000fd5b604051908082528060200260200182016040528015610a985781602001602082028036833780820191505090505b5090506000806000905060005b6003811015610c1e5760018160038110610ae8577f4e487b7100000000000000000000000000000000000000000000000000000000600052603260045260246000fd5b015492506001848481518110610b27577f4e487b7100000000000000000000000000000000000000000000000000000000600052603260045260246000fd5b6020026020010151610b399190610fc2565b848481518110610b72577f4e487b7100000000000000000000000000000000000000000000000000000000600052603260045260246000fd5b602002602001018181525050838281518110610bb7577f4e487b7100000000000000000000000000000000000000000000000000000000600052603260045260246000fd5b6020026020010151848481518110610bf8577f4e487b7100000000000000000000000000000000000000000000000000000000600052603260045260246000fd5b60200260200101511115610c0a578291505b600181610c179190610fc2565b9050610aa5565b5060005b8351811015610cce5781848281518110610c65577f4e487b7100000000000000000000000000000000000000000000000000000000600052603260045260246000fd5b60200260200101511415610cbb57838181518110610cac577f4e487b7100000000000000000000000000000000000000000000000000000000600052603260045260246000fd5b60200260200101519450610cce565b8080610cc690611022565b915050610c22565b508394505050505090565b50600081556001016000815560010160009055565b600081359050610cfd8161127d565b92915050565b600060208284031215610d1557600080fd5b6000610d2384828501610cee565b91505092915050565b6000610d39600e83610fb1565b9150610d448261109a565b602082019050919050565b6000610d5c601483610fb1565b9150610d67826110c3565b602082019050919050565b6000610d7f601883610fb1565b9150610d8a826110ec565b602082019050919050565b6000610da2602183610fb1565b9150610dad82611115565b604082019050919050565b6000610dc5601483610fb1565b9150610dd082611164565b602082019050919050565b6000610de8602283610fb1565b9150610df38261118d565b604082019050919050565b6000610e0b602183610fb1565b9150610e16826111dc565b604082019050919050565b6000610e2e600e83610fb1565b9150610e398261122b565b602082019050919050565b6000610e51600e83610fb1565b9150610e5c82611254565b602082019050919050565b610e7081611018565b82525050565b60006020820190508181036000830152610e8f81610d2c565b9050919050565b60006020820190508181036000830152610eaf81610d4f565b9050919050565b60006020820190508181036000830152610ecf81610d72565b9050919050565b60006020820190508181036000830152610eef81610d95565b9050919050565b60006020820190508181036000830152610f0f81610db8565b9050919050565b60006020820190508181036000830152610f2f81610ddb565b9050919050565b60006020820190508181036000830152610f4f81610dfe565b9050919050565b60006020820190508181036000830152610f6f81610e21565b9050919050565b60006020820190508181036000830152610f8f81610e44565b9050919050565b6000602082019050610fab6000830184610e67565b92915050565b600082825260208201905092915050565b6000610fcd82611018565b9150610fd883611018565b9250827fffffffffffffffffffffffffffffffffffffffffffffffffffffffffffffffff0382111561100d5761100c61106b565b5b828201905092915050565b6000819050919050565b600061102d82611018565b91507fffffffffffffffffffffffffffffffffffffffffffffffffffffffffffffffff8214156110605761105f61106b565b5b600182019050919050565b7f4e487b7100000000000000000000000000000000000000000000000000000000600052601160045260246000fd5b7f4e6f74207265706f727465722031000000000000000000000000000000000000600082015250565b7f526573756c74206f7574206f6620626f756e6473000000000000000000000000600082015250565b7f4f6e6c79206f6e6520696e707574207065726d69747465640000000000000000600082015250565b7f5468697264207265706f7274657220646964206e6f7420636f6e74726962757460008201527f6500000000000000000000000000000000000000000000000000000000000000602082015250565b7f4f6e6c79206f776e65722063616e20636c656172000000000000000000000000600082015250565b7f5365636f6e64207265706f7274657220646964206e6f7420636f6e747269627560008201527f7465000000000000000000000000000000000000000000000000000000000000602082015250565b7f4669727374207265706f7274657220646964206e6f7420636f6e74726962757460008201527f6500000000000000000000000000000000000000000000000000000000000000602082015250565b7f4e6f74207265706f727465722032000000000000000000000000000000000000600082015250565b7f4e6f74207265706f727465722033000000000000000000000000000000000000600082015250565b61128681611018565b811461129157600080fd5b5056fea26469706673582212207767a95f6c91588048f6345cd535021e706ee589479eeff487c9cfecf8be9bdd64736f6c63430008010033",
  "immutableReferences": {},
  "source": "// SPDX-License-Identifier: GPL-3.0\n\npragma solidity >=0.7.0 <0.9.0;\n\ncontract Oracle1 {\n    uint NUM_OUTCOMES;\n    uint[3] private reports;\n    address[3] private reporters;\n    address private owner;\n    uint[3] private inputs;\n\n    // outcomers flexible\n    constructor(uint outcomes, address _owner) {\n        NUM_OUTCOMES = outcomes;\n        owner = _owner;\n        reporters[0] = 0x583031D1113aD414F02576BD6afaBfb302140225;\n        reporters[1] = 0xdD870fA1b7C4700F2BD7f44238821C26f7392148;\n        reporters[2] = 0x265a5C3DD46EC82e2744f1d0E9fB4eD75D56132a;\n        inputs[0] = 0;\n        inputs[1] = 0;\n        inputs[2] = 0;\n    }\n\n    // determine winner through external oracles\n    function report1(uint won1) public {\n        require(msg.sender == reporters[0], \"Not reporter 1\");\n        require(won1 < NUM_OUTCOMES, \"Result out of bounds\");\n        require(inputs[0] == 0, \"Only one input permitted\");\n        inputs[0]++;\n        reports[0] = won1;\n    }\n\n    // ensure that can't change report after the fact\n    function report2(uint won2) public {\n        require(msg.sender == reporters[1], \"Not reporter 2\");\n        require(won2 < NUM_OUTCOMES, \"Result out of bounds\");\n        require(inputs[1] == 0, \"Only one input permitted\");\n        inputs[1]++;\n        reports[1] = won2;\n    }\n\n    function report3(uint won3) public {\n        require(msg.sender == reporters[2], \"Not reporter 3\");\n        require(won3 < NUM_OUTCOMES, \"Result out of bounds\");\n        require(inputs[2] == 0, \"Only one input permitted\");\n        inputs[2]++;\n        reports[2] = won3;\n    }\n\n    function clear() public {\n        require(msg.sender == owner, \"Only owner can clear\");\n        delete reports;\n        inputs[0] = 0;\n        inputs[1] = 0;\n        inputs[2] = 0;\n    }\n\n    // most often as consensus - defaults to report1 if inconclusive\n    function winner() public view returns(uint) {\n        // require(msg.sender == owner, \"Only owner can obtain result\");\n        require(inputs[0] == 1, \"First reporter did not contribute\");\n        require(inputs[1] == 1, \"Second reporter did not contribute\");\n        require(inputs[2] == 1, \"Third reporter did not contribute\");\n        uint  modeValue;\n        uint[] memory count = new uint[](NUM_OUTCOMES); \n        uint number; \n        uint maxIndex = 0;\n        \n        for (uint i = 0; i < reports.length; i += 1) {\n            number = reports[i];\n            count[number] = (count[number]) + 1;\n            if (count[number] > count[maxIndex]) {\n                maxIndex = number;\n            }\n        }\n        for (uint i = 0; i < count.length; i++) {\n            if (count[i] == maxIndex) {\n                modeValue=count[i];\n                break;\n            }\n        }\n        return modeValue;\n    }       \n}",
  "sourcePath": "/Users/benshi/Documents/BettingApp2/contracts/Oracle1.sol",
  "compiler": {
    "name": "solc",
    "version": "0.8.1+commit.df193b15.Emscripten.clang"
  },
  "schemaVersion": "3.4.3",
  "updatedAt": "2021-12-01T21:38:21.587Z",
  "devdoc": {
    "kind": "dev",
    "methods": {},
    "version": 1
  },
  "userdoc": {
    "kind": "user",
    "methods": {},
    "version": 1
  }
}