{
  "contractName": "PredictionMarket",
  "abi": [
    {
      "inputs": [
        {
          "internalType": "address",
          "name": "oracle_addr",
          "type": "address"
        }
      ],
      "stateMutability": "nonpayable",
      "type": "constructor"
    },
    {
      "inputs": [
        {
          "internalType": "address",
          "name": "",
          "type": "address"
        },
        {
          "internalType": "uint256",
          "name": "",
          "type": "uint256"
        }
      ],
      "name": "all_orders",
      "outputs": [
        {
          "internalType": "uint256",
          "name": "",
          "type": "uint256"
        }
      ],
      "stateMutability": "view",
      "type": "function",
      "constant": true
    },
    {
      "inputs": [
        {
          "internalType": "address",
          "name": "addr",
          "type": "address"
        }
      ],
      "name": "getOrders",
      "outputs": [
        {
          "internalType": "uint256[]",
          "name": "",
          "type": "uint256[]"
        }
      ],
      "stateMutability": "view",
      "type": "function",
      "constant": true
    },
    {
      "inputs": [
        {
          "internalType": "uint256",
          "name": "id",
          "type": "uint256"
        }
      ],
      "name": "getBidQuant",
      "outputs": [
        {
          "internalType": "uint256",
          "name": "",
          "type": "uint256"
        }
      ],
      "stateMutability": "view",
      "type": "function",
      "constant": true
    },
    {
      "inputs": [
        {
          "internalType": "uint256",
          "name": "id",
          "type": "uint256"
        }
      ],
      "name": "getBidPrice",
      "outputs": [
        {
          "internalType": "uint256",
          "name": "",
          "type": "uint256"
        }
      ],
      "stateMutability": "view",
      "type": "function",
      "constant": true
    },
    {
      "inputs": [
        {
          "internalType": "uint256",
          "name": "id",
          "type": "uint256"
        }
      ],
      "name": "getBidOutcome",
      "outputs": [
        {
          "internalType": "uint256",
          "name": "",
          "type": "uint256"
        }
      ],
      "stateMutability": "view",
      "type": "function",
      "constant": true
    },
    {
      "inputs": [
        {
          "internalType": "uint256",
          "name": "price",
          "type": "uint256"
        },
        {
          "internalType": "uint256",
          "name": "quantity",
          "type": "uint256"
        },
        {
          "internalType": "uint256",
          "name": "outcome",
          "type": "uint256"
        }
      ],
      "name": "bid",
      "outputs": [
        {
          "internalType": "uint256",
          "name": "",
          "type": "uint256"
        }
      ],
      "stateMutability": "payable",
      "type": "function",
      "payable": true
    },
    {
      "inputs": [
        {
          "internalType": "uint256",
          "name": "id",
          "type": "uint256"
        },
        {
          "internalType": "uint256",
          "name": "quantity",
          "type": "uint256"
        }
      ],
      "name": "cancel",
      "outputs": [
        {
          "internalType": "uint256",
          "name": "",
          "type": "uint256"
        }
      ],
      "stateMutability": "nonpayable",
      "type": "function"
    },
    {
      "inputs": [],
      "name": "cancelAll",
      "outputs": [
        {
          "internalType": "uint256",
          "name": "",
          "type": "uint256"
        }
      ],
      "stateMutability": "nonpayable",
      "type": "function"
    },
    {
      "inputs": [
        {
          "internalType": "uint256",
          "name": "winner",
          "type": "uint256"
        }
      ],
      "name": "redeem",
      "outputs": [
        {
          "internalType": "uint256",
          "name": "",
          "type": "uint256"
        }
      ],
      "stateMutability": "nonpayable",
      "type": "function"
    }
  ],
  "bytecode": "0x60806040523480156200001157600080fd5b5060405162002a4d38038062002a4d833981810160405281019062000037919062000096565b80600560006101000a81548173ffffffffffffffffffffffffffffffffffffffff021916908373ffffffffffffffffffffffffffffffffffffffff1602179055505062000110565b6000815190506200009081620000f6565b92915050565b600060208284031215620000a957600080fd5b6000620000b9848285016200007f565b91505092915050565b6000620000cf82620000d6565b9050919050565b600073ffffffffffffffffffffffffffffffffffffffff82169050919050565b6200010181620000c2565b81146200010d57600080fd5b50565b61292d80620001206000396000f3fe6080604052600436106100855760003560e01c806372b2e70d1161005957806372b2e70d1461015f5780638719363d1461019c5780639b013aee146101d95780639fb9979314610216578063db006a751461025357610085565b8062efa8951461008a578063093376fe146100c757806318cb2b18146101045780632ac9bf091461012f575b600080fd5b34801561009657600080fd5b506100b160048036038101906100ac919061238f565b610290565b6040516100be91906125dc565b60405180910390f35b3480156100d357600080fd5b506100ee60048036038101906100e99190612301565b6104e1565b6040516100fb919061253a565b60405180910390f35b34801561011057600080fd5b50610119610578565b60405161012691906125dc565b60405180910390f35b610149600480360381019061014491906123cb565b610699565b60405161015691906125dc565b60405180910390f35b34801561016b57600080fd5b5061018660048036038101906101819190612366565b610927565b60405161019391906125dc565b60405180910390f35b3480156101a857600080fd5b506101c360048036038101906101be9190612366565b61097b565b6040516101d091906125dc565b60405180910390f35b3480156101e557600080fd5b5061020060048036038101906101fb9190612366565b6109cf565b60405161020d91906125dc565b60405180910390f35b34801561022257600080fd5b5061023d6004803603810190610238919061232a565b610a23565b60405161024a91906125dc565b60405180910390f35b34801561025f57600080fd5b5061027a60048036038101906102759190612366565b610a54565b60405161028791906125dc565b60405180910390f35b6000808054905083106102a257600080fd5b3373ffffffffffffffffffffffffffffffffffffffff16600084815481106102f3577f4e487b7100000000000000000000000000000000000000000000000000000000600052603260045260246000fd5b906000526020600020906004020160020160009054906101000a900473ffffffffffffffffffffffffffffffffffffffff1673ffffffffffffffffffffffffffffffffffffffff161461034557600080fd5b61039a8260008581548110610383577f4e487b7100000000000000000000000000000000000000000000000000000000600052603260045260246000fd5b906000526020600020906004020160000154610c03565b915081600084815481106103d7577f4e487b7100000000000000000000000000000000000000000000000000000000600052603260045260246000fd5b906000526020600020906004020160000160008282546103f791906126f1565b925050819055506000826000858154811061043b577f4e487b7100000000000000000000000000000000000000000000000000000000600052603260045260246000fd5b9060005260206000209060040201600101546104579190612697565b905080471015610490577f4e487b7100000000000000000000000000000000000000000000000000000000600052600160045260246000fd5b3373ffffffffffffffffffffffffffffffffffffffff166108fc829081150290604051600060405180830381858888f193505050501580156104d6573d6000803e3d6000fd5b508091505092915050565b6060600160008373ffffffffffffffffffffffffffffffffffffffff1673ffffffffffffffffffffffffffffffffffffffff16815260200190815260200160002080548060200260200160405190810160405280929190818152602001828054801561056c57602002820191906000526020600020905b815481526020019060010190808311610558575b50505050509050919050565b6000806000905060005b600160003373ffffffffffffffffffffffffffffffffffffffff1673ffffffffffffffffffffffffffffffffffffffff1681526020019081526020016000208054905081101561069157610671600160003373ffffffffffffffffffffffffffffffffffffffff1673ffffffffffffffffffffffffffffffffffffffff1681526020019081526020016000208281548110610646577f4e487b7100000000000000000000000000000000000000000000000000000000600052603260045260246000fd5b9060005260206000200154790100000000000000000000000000000000000000000000000000610290565b8261067c9190612641565b9150808061068990612761565b915050610582565b508091505090565b6000670de0b6b3a7640000846106af9190612697565b9350600084116106f4576040517f08c379a00000000000000000000000000000000000000000000000000000000081526004016106eb9061259c565b60405180910390fd5b60008311610737576040517f08c379a000000000000000000000000000000000000000000000000000000000815260040161072e906125bc565b60405180910390fd5b6002821061077a576040517f08c379a00000000000000000000000000000000000000000000000000000000081526004016107719061257c565b60405180910390fd5b82846107869190612697565b34146107c7576040517f08c379a00000000000000000000000000000000000000000000000000000000081526004016107be9061255c565b60405180910390fd5b600080805490509050600060405180608001604052808681526020018781526020013373ffffffffffffffffffffffffffffffffffffffff168152602001858152509080600181540180825580915050600190039060005260206000209060040201600090919091909150600082015181600001556020820151816001015560408201518160020160006101000a81548173ffffffffffffffffffffffffffffffffffffffff021916908373ffffffffffffffffffffffffffffffffffffffff160217905550606082015181600301555050600160003373ffffffffffffffffffffffffffffffffffffffff1673ffffffffffffffffffffffffffffffffffffffff1681526020019081526020016000208190806001815401808255809150506001900390600052602060002001600090919091909150556109098382610c1d565b5b610912610f07565b1561091c5761090a565b809150509392505050565b6000808281548110610962577f4e487b7100000000000000000000000000000000000000000000000000000000600052603260045260246000fd5b9060005260206000209060040201600001549050919050565b60008082815481106109b6577f4e487b7100000000000000000000000000000000000000000000000000000000600052603260045260246000fd5b9060005260206000209060040201600301549050919050565b6000808281548110610a0a577f4e487b7100000000000000000000000000000000000000000000000000000000600052603260045260246000fd5b9060005260206000209060040201600101549050919050565b60016020528160005260406000208181548110610a3f57600080fd5b90600052602060002001600091509150505481565b60008082905060028110610a6757600080fd5b6000600460003373ffffffffffffffffffffffffffffffffffffffff1673ffffffffffffffffffffffffffffffffffffffff1681526020019081526020016000208260028110610ae0577f4e487b7100000000000000000000000000000000000000000000000000000000600052603260045260246000fd5b015490506000600460003373ffffffffffffffffffffffffffffffffffffffff1673ffffffffffffffffffffffffffffffffffffffff1681526020019081526020016000208360028110610b5d577f4e487b7100000000000000000000000000000000000000000000000000000000600052603260045260246000fd5b01819055506000678ac7230489e8000082610b789190612697565b905080471015610bb1577f4e487b7100000000000000000000000000000000000000000000000000000000600052600160045260246000fd5b3373ffffffffffffffffffffffffffffffffffffffff166108fc829081150290604051600060405180830381858888f19350505050158015610bf7573d6000803e3d6000fd5b50809350505050919050565b600081831015610c135782610c15565b815b905092915050565b6000805490508110610c58577f4e487b7100000000000000000000000000000000000000000000000000000000600052600160045260246000fd5b60028210610c8f577f4e487b7100000000000000000000000000000000000000000000000000000000600052600160045260246000fd5b8160008281548110610cca577f4e487b7100000000000000000000000000000000000000000000000000000000600052603260045260246000fd5b90600052602060002090600402016003015414610d10577f4e487b7100000000000000000000000000000000000000000000000000000000600052600160045260246000fd5b60028260028110610d4a577f4e487b7100000000000000000000000000000000000000000000000000000000600052603260045260246000fd5b018190806001815401808255809150506001900390600052602060002001600090919091909150556000600160028460028110610db0577f4e487b7100000000000000000000000000000000000000000000000000000000600052603260045260246000fd5b0180549050610dbf91906126f1565b90505b6000811115610f0257600060018083610ddb91906126f1565b901c9050610ee360028560028110610e1c577f4e487b7100000000000000000000000000000000000000000000000000000000600052603260045260246000fd5b018281548110610e55577f4e487b7100000000000000000000000000000000000000000000000000000000600052603260045260246000fd5b906000526020600020015460028660028110610e9a577f4e487b7100000000000000000000000000000000000000000000000000000000600052603260045260246000fd5b018481548110610ed3577f4e487b7100000000000000000000000000000000000000000000000000000000600052603260045260246000fd5b90600052602060002001546111ad565b15610eee5750610f02565b610ef98482846113a5565b80915050610dc2565b505050565b600080600090505b6002811015610fac575b610f2281611704565b158015610f3757506000610f3582611786565b145b15610f4a57610f4581611905565b610f19565b610f5381611704565b80610f6657506000610f6482611786565b115b610f99577f4e487b7100000000000000000000000000000000000000000000000000000000600052600160045260246000fd5b8080610fa490612761565b915050610f0f565b50600080790100000000000000000000000000000000000000000000000000905060005b600281101561102457610fe281611704565b61101157610fef81611e29565b83610ffa9190612641565b925061100e8261100983611786565b610c03565b91505b808061101c90612761565b915050610fd0565b50600082148061104d575079010000000000000000000000000000000000000000000000000081145b156110b95760008214801561107b575079010000000000000000000000000000000000000000000000000081145b6110ae577f4e487b7100000000000000000000000000000000000000000000000000000000600052600160045260246000fd5b6000925050506111aa565b678ac7230489e800008210156110d4576000925050506111aa565b60005b60028110156111a2576110e981611704565b61118f576110f78183611fa8565b816004600061110584612138565b73ffffffffffffffffffffffffffffffffffffffff1673ffffffffffffffffffffffffffffffffffffffff1681526020019081526020016000208260028110611177577f4e487b7100000000000000000000000000000000000000000000000000000000600052603260045260246000fd5b0160008282546111879190612641565b925050819055505b808061119a90612761565b9150506110d7565b506001925050505b90565b6000808054905083106111e9577f4e487b7100000000000000000000000000000000000000000000000000000000600052600160045260246000fd5b6000805490508210611224577f4e487b7100000000000000000000000000000000000000000000000000000000600052600160045260246000fd5b8183141561125b577f4e487b7100000000000000000000000000000000000000000000000000000000600052600160045260246000fd5b60008281548110611295577f4e487b7100000000000000000000000000000000000000000000000000000000600052603260045260246000fd5b906000526020600020906004020160010154600084815481106112e1577f4e487b7100000000000000000000000000000000000000000000000000000000600052603260045260246000fd5b906000526020600020906004020160010154141561130357818310905061139f565b6000828154811061133d577f4e487b7100000000000000000000000000000000000000000000000000000000600052603260045260246000fd5b90600052602060002090600402016001015460008481548110611389577f4e487b7100000000000000000000000000000000000000000000000000000000600052603260045260246000fd5b9060005260206000209060040201600101541190505b92915050565b600283106113dc577f4e487b7100000000000000000000000000000000000000000000000000000000600052600160045260246000fd5b60028360028110611416577f4e487b7100000000000000000000000000000000000000000000000000000000600052603260045260246000fd5b01805490508210611450577f4e487b7100000000000000000000000000000000000000000000000000000000600052600160045260246000fd5b6002836002811061148a577f4e487b7100000000000000000000000000000000000000000000000000000000600052603260045260246000fd5b018054905081106114c4577f4e487b7100000000000000000000000000000000000000000000000000000000600052600160045260246000fd5b808214156114fb577f4e487b7100000000000000000000000000000000000000000000000000000000600052600160045260246000fd5b600060028460028110611537577f4e487b7100000000000000000000000000000000000000000000000000000000600052603260045260246000fd5b018381548110611570577f4e487b7100000000000000000000000000000000000000000000000000000000600052603260045260246000fd5b90600052602060002001549050600284600281106115b7577f4e487b7100000000000000000000000000000000000000000000000000000000600052603260045260246000fd5b0182815481106115f0577f4e487b7100000000000000000000000000000000000000000000000000000000600052603260045260246000fd5b906000526020600020015460028560028110611635577f4e487b7100000000000000000000000000000000000000000000000000000000600052603260045260246000fd5b01848154811061166e577f4e487b7100000000000000000000000000000000000000000000000000000000600052603260045260246000fd5b906000526020600020018190555080600285600281106116b7577f4e487b7100000000000000000000000000000000000000000000000000000000600052603260045260246000fd5b0183815481106116f0577f4e487b7100000000000000000000000000000000000000000000000000000000600052603260045260246000fd5b906000526020600020018190555050505050565b60006002821061173d577f4e487b7100000000000000000000000000000000000000000000000000000000600052600160045260246000fd5b600060028360028110611779577f4e487b7100000000000000000000000000000000000000000000000000000000600052603260045260246000fd5b0180549050149050919050565b6000600282106117bf577f4e487b7100000000000000000000000000000000000000000000000000000000600052600160045260246000fd5b6000600283600281106117fb577f4e487b7100000000000000000000000000000000000000000000000000000000600052603260045260246000fd5b018054905011611834577f4e487b7100000000000000000000000000000000000000000000000000000000600052600160045260246000fd5b600060028360028110611870577f4e487b7100000000000000000000000000000000000000000000000000000000600052603260045260246000fd5b016000815481106118aa577f4e487b7100000000000000000000000000000000000000000000000000000000600052603260045260246000fd5b9060005260206000200154815481106118ec577f4e487b7100000000000000000000000000000000000000000000000000000000600052603260045260246000fd5b9060005260206000209060040201600001549050919050565b6002811061193c577f4e487b7100000000000000000000000000000000000000000000000000000000600052600160045260246000fd5b61194581611704565b15611979577f4e487b7100000000000000000000000000000000000000000000000000000000600052600160045260246000fd5b6001600282600281106119b5577f4e487b7100000000000000000000000000000000000000000000000000000000600052603260045260246000fd5b01805490501415611a4c57600281600281106119fa577f4e487b7100000000000000000000000000000000000000000000000000000000600052603260045260246000fd5b01805480611a31577f4e487b7100000000000000000000000000000000000000000000000000000000600052603160045260246000fd5b60019003818190600052602060002001600090559055611e26565b611aa2816000600160028560028110611a8e577f4e487b7100000000000000000000000000000000000000000000000000000000600052603260045260246000fd5b0180549050611a9d91906126f1565b6113a5565b60028160028110611adc577f4e487b7100000000000000000000000000000000000000000000000000000000600052603260045260246000fd5b01805480611b13577f4e487b7100000000000000000000000000000000000000000000000000000000600052603160045260246000fd5b60019003818190600052602060002001600090559055600080600190505b60028360028110611b6b577f4e487b7100000000000000000000000000000000000000000000000000000000600052603260045260246000fd5b0180549050811015611e235760028360028110611bb1577f4e487b7100000000000000000000000000000000000000000000000000000000600052603260045260246000fd5b0180549050600182611bc39190612641565b108015611cdc5750611cdb60028460028110611c08577f4e487b7100000000000000000000000000000000000000000000000000000000600052603260045260246000fd5b01600183611c169190612641565b81548110611c4d577f4e487b7100000000000000000000000000000000000000000000000000000000600052603260045260246000fd5b906000526020600020015460028560028110611c92577f4e487b7100000000000000000000000000000000000000000000000000000000600052603260045260246000fd5b018381548110611ccb577f4e487b7100000000000000000000000000000000000000000000000000000000600052603260045260246000fd5b90600052602060002001546111ad565b5b15611cf0578080611cec90612761565b9150505b611df460028460028110611d2d577f4e487b7100000000000000000000000000000000000000000000000000000000600052603260045260246000fd5b018381548110611d66577f4e487b7100000000000000000000000000000000000000000000000000000000600052603260045260246000fd5b906000526020600020015460028560028110611dab577f4e487b7100000000000000000000000000000000000000000000000000000000600052603260045260246000fd5b018381548110611de4577f4e487b7100000000000000000000000000000000000000000000000000000000600052603260045260246000fd5b90600052602060002001546111ad565b15611dfe57611e23565b611e098383836113a5565b80915060018083901b611e1c9190612641565b9050611b31565b50505b50565b600060028210611e62577f4e487b7100000000000000000000000000000000000000000000000000000000600052600160045260246000fd5b600060028360028110611e9e577f4e487b7100000000000000000000000000000000000000000000000000000000600052603260045260246000fd5b018054905011611ed7577f4e487b7100000000000000000000000000000000000000000000000000000000600052600160045260246000fd5b600060028360028110611f13577f4e487b7100000000000000000000000000000000000000000000000000000000600052603260045260246000fd5b01600081548110611f4d577f4e487b7100000000000000000000000000000000000000000000000000000000600052603260045260246000fd5b906000526020600020015481548110611f8f577f4e487b7100000000000000000000000000000000000000000000000000000000600052603260045260246000fd5b9060005260206000209060040201600101549050919050565b60028210611fdf577f4e487b7100000000000000000000000000000000000000000000000000000000600052600160045260246000fd5b60006002836002811061201b577f4e487b7100000000000000000000000000000000000000000000000000000000600052603260045260246000fd5b018054905011612054577f4e487b7100000000000000000000000000000000000000000000000000000000600052600160045260246000fd5b80600060028460028110612091577f4e487b7100000000000000000000000000000000000000000000000000000000600052603260045260246000fd5b016000815481106120cb577f4e487b7100000000000000000000000000000000000000000000000000000000600052603260045260246000fd5b90600052602060002001548154811061210d577f4e487b7100000000000000000000000000000000000000000000000000000000600052603260045260246000fd5b9060005260206000209060040201600001600082825461212d91906126f1565b925050819055505050565b600060028210612171577f4e487b7100000000000000000000000000000000000000000000000000000000600052600160045260246000fd5b6000600283600281106121ad577f4e487b7100000000000000000000000000000000000000000000000000000000600052603260045260246000fd5b0180549050116121e6577f4e487b7100000000000000000000000000000000000000000000000000000000600052600160045260246000fd5b600060028360028110612222577f4e487b7100000000000000000000000000000000000000000000000000000000600052603260045260246000fd5b0160008154811061225c577f4e487b7100000000000000000000000000000000000000000000000000000000600052603260045260246000fd5b90600052602060002001548154811061229e577f4e487b7100000000000000000000000000000000000000000000000000000000600052603260045260246000fd5b906000526020600020906004020160020160009054906101000a900473ffffffffffffffffffffffffffffffffffffffff169050919050565b6000813590506122e6816128c9565b92915050565b6000813590506122fb816128e0565b92915050565b60006020828403121561231357600080fd5b6000612321848285016122d7565b91505092915050565b6000806040838503121561233d57600080fd5b600061234b858286016122d7565b925050602061235c858286016122ec565b9150509250929050565b60006020828403121561237857600080fd5b6000612386848285016122ec565b91505092915050565b600080604083850312156123a257600080fd5b60006123b0858286016122ec565b92505060206123c1858286016122ec565b9150509250929050565b6000806000606084860312156123e057600080fd5b60006123ee868287016122ec565b93505060206123ff868287016122ec565b9250506040612410868287016122ec565b9150509250925092565b6000612426838361251c565b60208301905092915050565b600061243d82612607565b612447818561261f565b9350612452836125f7565b8060005b8381101561248357815161246a888261241a565b975061247583612612565b925050600181019050612456565b5085935050505092915050565b600061249d602783612630565b91506124a8826127d9565b604082019050919050565b60006124c0602783612630565b91506124cb82612828565b604082019050919050565b60006124e3601683612630565b91506124ee82612877565b602082019050919050565b6000612506601983612630565b9150612511826128a0565b602082019050919050565b61252581612757565b82525050565b61253481612757565b82525050565b600060208201905081810360008301526125548184612432565b905092915050565b6000602082019050818103600083015261257581612490565b9050919050565b60006020820190508181036000830152612595816124b3565b9050919050565b600060208201905081810360008301526125b5816124d6565b9050919050565b600060208201905081810360008301526125d5816124f9565b9050919050565b60006020820190506125f1600083018461252b565b92915050565b6000819050602082019050919050565b600081519050919050565b6000602082019050919050565b600082825260208201905092915050565b600082825260208201905092915050565b600061264c82612757565b915061265783612757565b9250827fffffffffffffffffffffffffffffffffffffffffffffffffffffffffffffffff0382111561268c5761268b6127aa565b5b828201905092915050565b60006126a282612757565b91506126ad83612757565b9250817fffffffffffffffffffffffffffffffffffffffffffffffffffffffffffffffff04831182151516156126e6576126e56127aa565b5b828202905092915050565b60006126fc82612757565b915061270783612757565b92508282101561271a576127196127aa565b5b828203905092915050565b600061273082612737565b9050919050565b600073ffffffffffffffffffffffffffffffffffffffff82169050919050565b6000819050919050565b600061276c82612757565b91507fffffffffffffffffffffffffffffffffffffffffffffffffffffffffffffffff82141561279f5761279e6127aa565b5b600182019050919050565b7f4e487b7100000000000000000000000000000000000000000000000000000000600052601160045260246000fd5b7f70726f766964652076616c756520657175616c20746f2070726963652078207160008201527f75616e7469747900000000000000000000000000000000000000000000000000602082015250565b7f6f7574636f6d65206973206265747765656e2030202e2e2e204e554d5f4f555460008201527f434f4d45532d3100000000000000000000000000000000000000000000000000602082015250565b7f7072696365206d75737420626520706f73697469766500000000000000000000600082015250565b7f7175616e74697479206d75737420626520706f73697469766500000000000000600082015250565b6128d281612725565b81146128dd57600080fd5b50565b6128e981612757565b81146128f457600080fd5b5056fea264697066735822122050a6e39bacffbf2d8c99538ee32d32b1d14a50645a7bd27f1e6382ae616e957b64736f6c63430008010033",
  "immutableReferences": {},
  "source": "// SPDX-License-Identifier: GPL-3.0\n\npragma solidity >=0.7.0 <0.9.0;\n\ncontract PredictionMarket {\n    uint constant NUM_OUTCOMES = 2;\n    uint constant INF = 1<<200;\n    uint constant CONTRACT_VALUE = 10 ether;\n    \n    struct Order {\n        uint quantity;\n        uint price;\n        address addr;\n        uint outcome;\n    }\n\n    Order[] orders;\n    mapping (address => uint[]) public all_orders;\n    uint[][NUM_OUTCOMES] orderbooks;\n    mapping (address => uint[NUM_OUTCOMES]) pos_size;\n    address oracle_address;\n    \n    constructor(address oracle_addr) {\n        oracle_address = oracle_addr;\n    }\n    \n    // Additional functions for front end\n    function getOrders(address addr) public view returns(uint[] memory) {\n        return all_orders[addr];\n    }\n    function getBidQuant(uint id) public view returns(uint) {\n        return orders[id].quantity;\n    }\n    function getBidPrice(uint id) public view returns(uint) {\n        return orders[id].price;\n    }\n    function getBidOutcome(uint id) public view returns(uint) {\n        return orders[id].outcome;\n    }\n\n    function math_min(uint x, uint y) private returns (uint) {\n        return x >= y ? y : x;\n    }\n    function higher_priority(uint i, uint j) private returns (bool) {\n        assert(i < orders.length);\n        assert(j < orders.length);\n        assert(i != j);\n        if (orders[i].price == orders[j].price) return i < j;\n        return orders[i].price > orders[j].price;\n    }\n    // orderbook uses heaps\n    function orderbooks_swap(uint outcome, uint i, uint j) private {\n        assert(outcome < NUM_OUTCOMES);\n        assert(i < orderbooks[outcome].length);\n        assert(j < orderbooks[outcome].length);\n        assert(i != j);\n        uint temp = orderbooks[outcome][i];\n        orderbooks[outcome][i] = orderbooks[outcome][j];\n        orderbooks[outcome][j] = temp;\n    }\n    function orderbooks_add(uint outcome, uint id) private {\n        assert(id < orders.length);\n        assert(outcome < NUM_OUTCOMES);\n        assert(orders[id].outcome == outcome);\n        orderbooks[outcome].push(id);\n        uint i = orderbooks[outcome].length - 1;\n        while(i > 0) {\n            uint par_i = (i - 1) >> 1;\n            if (higher_priority(orderbooks[outcome][par_i], orderbooks[outcome][i])) break;\n            orderbooks_swap(outcome, par_i, i);\n            i = par_i;\n        }\n    }\n    function orderbooks_emp(uint outcome) private returns (bool){\n        assert(outcome < NUM_OUTCOMES);\n        return orderbooks[outcome].length == 0;\n    }\n    function orderbooks_top_quantity(uint outcome) private returns (uint) {\n        assert(outcome < NUM_OUTCOMES);\n        assert(orderbooks[outcome].length > 0);\n        return orders[orderbooks[outcome][0]].quantity;\n    }\n    function orderbooks_top_remove_quantity(uint outcome, uint delta) private {\n        assert(outcome < NUM_OUTCOMES);\n        assert(orderbooks[outcome].length > 0);\n        orders[orderbooks[outcome][0]].quantity -= delta;\n    }\n    function orderbooks_top_price(uint outcome) private returns (uint) {\n        assert(outcome < NUM_OUTCOMES);\n        assert(orderbooks[outcome].length > 0);\n        return orders[orderbooks[outcome][0]].price;\n    }\n    function orderbooks_top_address(uint outcome) private returns (address) {\n        assert(outcome < NUM_OUTCOMES);\n        assert(orderbooks[outcome].length > 0);\n        return orders[orderbooks[outcome][0]].addr;\n    }\n    function orderbooks_pop(uint outcome) private {\n        assert(outcome < NUM_OUTCOMES);\n        assert(!orderbooks_emp(outcome));\n        if (orderbooks[outcome].length == 1) {\n            orderbooks[outcome].pop();\n        } else {\n            orderbooks_swap(outcome, 0, orderbooks[outcome].length - 1);\n            orderbooks[outcome].pop();\n            \n            uint i = 0;\n            uint child_i = 1; \n            while(child_i < orderbooks[outcome].length) {\n              if (child_i + 1 < orderbooks[outcome].length && higher_priority(orderbooks[outcome][child_i + 1], orderbooks[outcome][child_i]))\n                child_i++;\n              if (higher_priority(orderbooks[outcome][i], orderbooks[outcome][child_i])) break;\n              orderbooks_swap(outcome, i, child_i);\n              i = child_i;\n              child_i = (i << 1) + 1;\n            }            \n        }\n    }\n    // matching engine\n    function try_matching() private returns (bool) {\n        for (uint outcome = 0; outcome < NUM_OUTCOMES; outcome++) {\n          while(!orderbooks_emp(outcome) && orderbooks_top_quantity(outcome) == 0)\n            orderbooks_pop(outcome);\n          assert(orderbooks_emp(outcome) || orderbooks_top_quantity(outcome) > 0);\n        }\n    \n        uint sum_prices = 0;\n        uint min_quantity = INF;\n    \n        for (uint outcome = 0; outcome < NUM_OUTCOMES; outcome++) if (!orderbooks_emp(outcome)) {\n          sum_prices += orderbooks_top_price(outcome);\n          min_quantity = math_min(min_quantity, orderbooks_top_quantity(outcome));\n        }\n    \n        if (sum_prices == 0 || min_quantity == INF) {\n          assert(sum_prices == 0 && min_quantity == INF);\n          return false;\n        }\n        if (sum_prices < CONTRACT_VALUE) {\n          return false;\n        }\n        \n        for (uint outcome = 0; outcome < NUM_OUTCOMES; outcome++) if (!orderbooks_emp(outcome)) {\n          orderbooks_top_remove_quantity(outcome, min_quantity);\n          pos_size[orderbooks_top_address(outcome)][outcome] += min_quantity;\n        }\n    \n        return true;\n    }\n    // submit a new bid for any outcome\n    // price is in ether\n    function bid(uint price, uint quantity, uint outcome) public payable returns (uint) {\n        price = price * 1e18;\n        require(price > 0, 'price must be positive');\n        require(quantity > 0, 'quantity must be positive');\n        require(outcome < NUM_OUTCOMES, 'outcome is between 0 ... NUM_OUTCOMES-1');\n        require(msg.value == price * quantity, 'provide value equal to price x quantity');\n    \n        uint id = orders.length;\n        orders.push(Order({\n            quantity: quantity,\n            price: price,\n            addr: msg.sender,\n            outcome: outcome}));\n        all_orders[msg.sender].push(id);\n        orderbooks_add(outcome, id);\n    \n        while(try_matching()) {}\n        \n        return id;\n    }\n    // cancel part of one of your unfilled orders\n    function cancel(uint id, uint quantity) public returns (uint) {\n        require(id < orders.length);\n        require(orders[id].addr == msg.sender);\n        \n        quantity = math_min(quantity, orders[id].quantity);\n        orders[id].quantity -= quantity;\n        uint to_refund = orders[id].price * quantity;\n        \n        assert(address(this).balance >= to_refund);\n        payable(msg.sender).transfer(to_refund);\n        return to_refund;\n    }\n    // cancel all your unfilled orders\n    function cancelAll() public returns (uint) {\n        uint to_refund = 0;\n        for (uint i = 0; i < all_orders[msg.sender].length; i++)\n            to_refund += cancel(all_orders[msg.sender][i], INF);\n        return to_refund;\n    }\n    // redeem any money you won if you bet correctly\n    // call smart smart contarct to get winning outcome\n    function redeem(uint winner) public returns (uint) {\n        uint winning_outcome = winner;\n        require(winning_outcome < NUM_OUTCOMES);\n        uint winning_shares = pos_size[msg.sender][winning_outcome];\n        pos_size[msg.sender][winning_outcome] = 0;\n        uint winnings = winning_shares * CONTRACT_VALUE;\n        assert(address(this).balance >= winnings);\n        payable(msg.sender).transfer(winnings);\n        return winnings;\n    }\n}\n\ncontract Oracle1 {\n    uint NUM_OUTCOMES;\n    uint[3] private reports;\n    uint[3] private inputs;\n\n    // outcomers flexible\n    constructor(uint outcomes) {\n        NUM_OUTCOMES = outcomes;\n        inputs[0] = 0;\n        inputs[1] = 0;\n        inputs[2] = 0;\n    }\n\n    // determine winner through external oracles\n    function report1(uint won1) public {\n        require(won1 < NUM_OUTCOMES, \"Result out of bounds\");\n        require(inputs[0] == 0, \"Only one input permitted\");\n        inputs[0]++;\n        reports[0] = won1;\n    }\n\n    // ensure that can't change report after the fact\n    function report2(uint won2) public {\n        require(won2 < NUM_OUTCOMES, \"Result out of bounds\");\n        require(inputs[1] == 0, \"Only one input permitted\");\n        inputs[1]++;\n        reports[1] = won2;\n    }\n\n    function report3(uint won3) public {\n        require(won3 < NUM_OUTCOMES, \"Result out of bounds\");\n        require(inputs[2] == 0, \"Only one input permitted\");\n        inputs[2]++;\n        reports[2] = won3;\n    }\n\n    function clear() public {\n        delete reports;\n        inputs[0] = 0;\n        inputs[1] = 0;\n        inputs[2] = 0;\n    }\n\n    // most often as consensus - defaults to report1 if inconclusive\n    function winner(uint first, uint second, uint third) public returns(uint) {\n        report1(first);\n        report2(second);\n        report3(third);\n        \n        uint  modeValue;\n        uint[] memory count = new uint[](NUM_OUTCOMES); \n        uint number; \n        uint maxIndex = 0;\n        \n        for (uint i = 0; i < reports.length; i += 1) {\n            number = reports[i];\n            count[number] = (count[number]) + 1;\n            if (count[number] > count[maxIndex]) {\n                maxIndex = number;\n            }\n        }\n        for (uint i = 0; i < count.length; i++) {\n            if (count[i] == maxIndex) {\n                modeValue=count[i];\n                break;\n            }\n        }\n        return modeValue;\n    }       \n}",
  "sourcePath": "/Users/benshi/Documents/BettingApp2/contracts/PredictionMarket.sol",
  "compiler": {
    "name": "solc",
    "version": "0.8.1+commit.df193b15.Emscripten.clang"
  },
  "schemaVersion": "3.4.3",
  "updatedAt": "2021-12-02T05:55:45.461Z",
  "networkType": "ethereum",
  "devdoc": {
    "kind": "dev",
    "methods": {},
    "version": 1
  },
  "userdoc": {
    "kind": "user",
    "methods": {},
    "version": 1
  }
}