{
  "contractName": "PredictionMarket",
  "abi": [
    {
      "inputs": [
        {
          "internalType": "address",
          "name": "oracle_addr",
          "type": "address"
        }
      ],
      "stateMutability": "nonpayable",
      "type": "constructor"
    },
    {
      "inputs": [
        {
          "internalType": "address",
          "name": "",
          "type": "address"
        },
        {
          "internalType": "uint256",
          "name": "",
          "type": "uint256"
        }
      ],
      "name": "all_orders",
      "outputs": [
        {
          "internalType": "uint256",
          "name": "",
          "type": "uint256"
        }
      ],
      "stateMutability": "view",
      "type": "function",
      "constant": true
    },
    {
      "inputs": [],
      "name": "temp",
      "outputs": [
        {
          "internalType": "uint256",
          "name": "",
          "type": "uint256"
        }
      ],
      "stateMutability": "view",
      "type": "function",
      "constant": true
    },
    {
      "inputs": [
        {
          "internalType": "address",
          "name": "addr",
          "type": "address"
        }
      ],
      "name": "getOrders",
      "outputs": [
        {
          "internalType": "uint256[]",
          "name": "",
          "type": "uint256[]"
        }
      ],
      "stateMutability": "view",
      "type": "function",
      "constant": true
    },
    {
      "inputs": [
        {
          "internalType": "uint256",
          "name": "id",
          "type": "uint256"
        }
      ],
      "name": "getBidQuant",
      "outputs": [
        {
          "internalType": "uint256",
          "name": "",
          "type": "uint256"
        }
      ],
      "stateMutability": "view",
      "type": "function",
      "constant": true
    },
    {
      "inputs": [
        {
          "internalType": "uint256",
          "name": "id",
          "type": "uint256"
        }
      ],
      "name": "getBidPrice",
      "outputs": [
        {
          "internalType": "uint256",
          "name": "",
          "type": "uint256"
        }
      ],
      "stateMutability": "view",
      "type": "function",
      "constant": true
    },
    {
      "inputs": [
        {
          "internalType": "uint256",
          "name": "id",
          "type": "uint256"
        }
      ],
      "name": "getBidOutcome",
      "outputs": [
        {
          "internalType": "uint256",
          "name": "",
          "type": "uint256"
        }
      ],
      "stateMutability": "view",
      "type": "function",
      "constant": true
    },
    {
      "inputs": [
        {
          "internalType": "uint256",
          "name": "price",
          "type": "uint256"
        },
        {
          "internalType": "uint256",
          "name": "quantity",
          "type": "uint256"
        },
        {
          "internalType": "uint256",
          "name": "outcome",
          "type": "uint256"
        }
      ],
      "name": "bid",
      "outputs": [
        {
          "internalType": "uint256",
          "name": "",
          "type": "uint256"
        }
      ],
      "stateMutability": "payable",
      "type": "function",
      "payable": true
    },
    {
      "inputs": [
        {
          "internalType": "uint256",
          "name": "id",
          "type": "uint256"
        },
        {
          "internalType": "uint256",
          "name": "quantity",
          "type": "uint256"
        }
      ],
      "name": "cancel",
      "outputs": [
        {
          "internalType": "uint256",
          "name": "",
          "type": "uint256"
        }
      ],
      "stateMutability": "nonpayable",
      "type": "function"
    },
    {
      "inputs": [],
      "name": "cancelAll",
      "outputs": [
        {
          "internalType": "uint256",
          "name": "",
          "type": "uint256"
        }
      ],
      "stateMutability": "nonpayable",
      "type": "function"
    },
    {
      "inputs": [
        {
          "internalType": "uint256",
          "name": "winner",
          "type": "uint256"
        }
      ],
      "name": "redeem",
      "outputs": [
        {
          "internalType": "uint256",
          "name": "",
          "type": "uint256"
        }
      ],
      "stateMutability": "nonpayable",
      "type": "function"
    },
    {
      "inputs": [],
      "name": "returnTemp",
      "outputs": [
        {
          "internalType": "uint256",
          "name": "",
          "type": "uint256"
        }
      ],
      "stateMutability": "view",
      "type": "function",
      "constant": true
    }
  ],
  "bytecode": "0x60806040523480156200001157600080fd5b5060405162002b4838038062002b48833981810160405281019062000037919062000096565b80600560006101000a81548173ffffffffffffffffffffffffffffffffffffffff021916908373ffffffffffffffffffffffffffffffffffffffff1602179055505062000110565b6000815190506200009081620000f6565b92915050565b600060208284031215620000a957600080fd5b6000620000b9848285016200007f565b91505092915050565b6000620000cf82620000d6565b9050919050565b600073ffffffffffffffffffffffffffffffffffffffff82169050919050565b6200010181620000c2565b81146200010d57600080fd5b50565b612a2880620001206000396000f3fe60806040526004361061009b5760003560e01c806372b2e70d1161006457806372b2e70d146101a05780638719363d146101dd5780639b013aee1461021a5780639fb9979314610257578063db006a7514610294578063dfde8c02146102d15761009b565b8062efa895146100a0578063093376fe146100dd57806318cb2b181461011a5780632ac9bf0914610145578063673402e514610175575b600080fd5b3480156100ac57600080fd5b506100c760048036038101906100c2919061248a565b6102fc565b6040516100d491906126d7565b60405180910390f35b3480156100e957600080fd5b5061010460048036038101906100ff91906123fc565b61054d565b6040516101119190612635565b60405180910390f35b34801561012657600080fd5b5061012f6105e4565b60405161013c91906126d7565b60405180910390f35b61015f600480360381019061015a91906124c6565b610705565b60405161016c91906126d7565b60405180910390f35b34801561018157600080fd5b5061018a610993565b60405161019791906126d7565b60405180910390f35b3480156101ac57600080fd5b506101c760048036038101906101c29190612461565b610999565b6040516101d491906126d7565b60405180910390f35b3480156101e957600080fd5b5061020460048036038101906101ff9190612461565b6109ed565b60405161021191906126d7565b60405180910390f35b34801561022657600080fd5b50610241600480360381019061023c9190612461565b610a41565b60405161024e91906126d7565b60405180910390f35b34801561026357600080fd5b5061027e60048036038101906102799190612425565b610a95565b60405161028b91906126d7565b60405180910390f35b3480156102a057600080fd5b506102bb60048036038101906102b69190612461565b610ac6565b6040516102c891906126d7565b60405180910390f35b3480156102dd57600080fd5b506102e6610cf4565b6040516102f391906126d7565b60405180910390f35b60008080549050831061030e57600080fd5b3373ffffffffffffffffffffffffffffffffffffffff166000848154811061035f577f4e487b7100000000000000000000000000000000000000000000000000000000600052603260045260246000fd5b906000526020600020906004020160020160009054906101000a900473ffffffffffffffffffffffffffffffffffffffff1673ffffffffffffffffffffffffffffffffffffffff16146103b157600080fd5b61040682600085815481106103ef577f4e487b7100000000000000000000000000000000000000000000000000000000600052603260045260246000fd5b906000526020600020906004020160000154610cfe565b91508160008481548110610443577f4e487b7100000000000000000000000000000000000000000000000000000000600052603260045260246000fd5b9060005260206000209060040201600001600082825461046391906127ec565b92505081905550600082600085815481106104a7577f4e487b7100000000000000000000000000000000000000000000000000000000600052603260045260246000fd5b9060005260206000209060040201600101546104c39190612792565b9050804710156104fc577f4e487b7100000000000000000000000000000000000000000000000000000000600052600160045260246000fd5b3373ffffffffffffffffffffffffffffffffffffffff166108fc829081150290604051600060405180830381858888f19350505050158015610542573d6000803e3d6000fd5b508091505092915050565b6060600160008373ffffffffffffffffffffffffffffffffffffffff1673ffffffffffffffffffffffffffffffffffffffff1681526020019081526020016000208054806020026020016040519081016040528092919081815260200182805480156105d857602002820191906000526020600020905b8154815260200190600101908083116105c4575b50505050509050919050565b6000806000905060005b600160003373ffffffffffffffffffffffffffffffffffffffff1673ffffffffffffffffffffffffffffffffffffffff168152602001908152602001600020805490508110156106fd576106dd600160003373ffffffffffffffffffffffffffffffffffffffff1673ffffffffffffffffffffffffffffffffffffffff16815260200190815260200160002082815481106106b2577f4e487b7100000000000000000000000000000000000000000000000000000000600052603260045260246000fd5b90600052602060002001547901000000000000000000000000000000000000000000000000006102fc565b826106e8919061273c565b915080806106f59061285c565b9150506105ee565b508091505090565b6000670de0b6b3a76400008461071b9190612792565b935060008411610760576040517f08c379a000000000000000000000000000000000000000000000000000000000815260040161075790612697565b60405180910390fd5b600083116107a3576040517f08c379a000000000000000000000000000000000000000000000000000000000815260040161079a906126b7565b60405180910390fd5b600282106107e6576040517f08c379a00000000000000000000000000000000000000000000000000000000081526004016107dd90612677565b60405180910390fd5b82846107f29190612792565b3414610833576040517f08c379a000000000000000000000000000000000000000000000000000000000815260040161082a90612657565b60405180910390fd5b600080805490509050600060405180608001604052808681526020018781526020013373ffffffffffffffffffffffffffffffffffffffff168152602001858152509080600181540180825580915050600190039060005260206000209060040201600090919091909150600082015181600001556020820151816001015560408201518160020160006101000a81548173ffffffffffffffffffffffffffffffffffffffff021916908373ffffffffffffffffffffffffffffffffffffffff160217905550606082015181600301555050600160003373ffffffffffffffffffffffffffffffffffffffff1673ffffffffffffffffffffffffffffffffffffffff1681526020019081526020016000208190806001815401808255809150506001900390600052602060002001600090919091909150556109758382610d18565b5b61097e611002565b1561098857610976565b809150509392505050565b60065481565b60008082815481106109d4577f4e487b7100000000000000000000000000000000000000000000000000000000600052603260045260246000fd5b9060005260206000209060040201600001549050919050565b6000808281548110610a28577f4e487b7100000000000000000000000000000000000000000000000000000000600052603260045260246000fd5b9060005260206000209060040201600301549050919050565b6000808281548110610a7c577f4e487b7100000000000000000000000000000000000000000000000000000000600052603260045260246000fd5b9060005260206000209060040201600101549050919050565b60016020528160005260406000208181548110610ab157600080fd5b90600052602060002001600091509150505481565b60008082905060028110610ad957600080fd5b6000600460003373ffffffffffffffffffffffffffffffffffffffff1673ffffffffffffffffffffffffffffffffffffffff1681526020019081526020016000208260028110610b52577f4e487b7100000000000000000000000000000000000000000000000000000000600052603260045260246000fd5b01549050600460003373ffffffffffffffffffffffffffffffffffffffff1673ffffffffffffffffffffffffffffffffffffffff1681526020019081526020016000208260028110610bcd577f4e487b7100000000000000000000000000000000000000000000000000000000600052603260045260246000fd5b01546006819055506000600460003373ffffffffffffffffffffffffffffffffffffffff1673ffffffffffffffffffffffffffffffffffffffff1681526020019081526020016000208360028110610c4e577f4e487b7100000000000000000000000000000000000000000000000000000000600052603260045260246000fd5b01819055506000678ac7230489e8000082610c699190612792565b905080471015610ca2577f4e487b7100000000000000000000000000000000000000000000000000000000600052600160045260246000fd5b3373ffffffffffffffffffffffffffffffffffffffff166108fc829081150290604051600060405180830381858888f19350505050158015610ce8573d6000803e3d6000fd5b50809350505050919050565b6000600654905090565b600081831015610d0e5782610d10565b815b905092915050565b6000805490508110610d53577f4e487b7100000000000000000000000000000000000000000000000000000000600052600160045260246000fd5b60028210610d8a577f4e487b7100000000000000000000000000000000000000000000000000000000600052600160045260246000fd5b8160008281548110610dc5577f4e487b7100000000000000000000000000000000000000000000000000000000600052603260045260246000fd5b90600052602060002090600402016003015414610e0b577f4e487b7100000000000000000000000000000000000000000000000000000000600052600160045260246000fd5b60028260028110610e45577f4e487b7100000000000000000000000000000000000000000000000000000000600052603260045260246000fd5b018190806001815401808255809150506001900390600052602060002001600090919091909150556000600160028460028110610eab577f4e487b7100000000000000000000000000000000000000000000000000000000600052603260045260246000fd5b0180549050610eba91906127ec565b90505b6000811115610ffd57600060018083610ed691906127ec565b901c9050610fde60028560028110610f17577f4e487b7100000000000000000000000000000000000000000000000000000000600052603260045260246000fd5b018281548110610f50577f4e487b7100000000000000000000000000000000000000000000000000000000600052603260045260246000fd5b906000526020600020015460028660028110610f95577f4e487b7100000000000000000000000000000000000000000000000000000000600052603260045260246000fd5b018481548110610fce577f4e487b7100000000000000000000000000000000000000000000000000000000600052603260045260246000fd5b90600052602060002001546112a8565b15610fe95750610ffd565b610ff48482846114a0565b80915050610ebd565b505050565b600080600090505b60028110156110a7575b61101d816117ff565b1580156110325750600061103082611881565b145b156110455761104081611a00565b611014565b61104e816117ff565b806110615750600061105f82611881565b115b611094577f4e487b7100000000000000000000000000000000000000000000000000000000600052600160045260246000fd5b808061109f9061285c565b91505061100a565b50600080790100000000000000000000000000000000000000000000000000905060005b600281101561111f576110dd816117ff565b61110c576110ea81611f24565b836110f5919061273c565b92506111098261110483611881565b610cfe565b91505b80806111179061285c565b9150506110cb565b506000821480611148575079010000000000000000000000000000000000000000000000000081145b156111b457600082148015611176575079010000000000000000000000000000000000000000000000000081145b6111a9577f4e487b7100000000000000000000000000000000000000000000000000000000600052600160045260246000fd5b6000925050506112a5565b678ac7230489e800008210156111cf576000925050506112a5565b60005b600281101561129d576111e4816117ff565b61128a576111f281836120a3565b816004600061120084612233565b73ffffffffffffffffffffffffffffffffffffffff1673ffffffffffffffffffffffffffffffffffffffff1681526020019081526020016000208260028110611272577f4e487b7100000000000000000000000000000000000000000000000000000000600052603260045260246000fd5b016000828254611282919061273c565b925050819055505b80806112959061285c565b9150506111d2565b506001925050505b90565b6000808054905083106112e4577f4e487b7100000000000000000000000000000000000000000000000000000000600052600160045260246000fd5b600080549050821061131f577f4e487b7100000000000000000000000000000000000000000000000000000000600052600160045260246000fd5b81831415611356577f4e487b7100000000000000000000000000000000000000000000000000000000600052600160045260246000fd5b60008281548110611390577f4e487b7100000000000000000000000000000000000000000000000000000000600052603260045260246000fd5b906000526020600020906004020160010154600084815481106113dc577f4e487b7100000000000000000000000000000000000000000000000000000000600052603260045260246000fd5b90600052602060002090600402016001015414156113fe57818310905061149a565b60008281548110611438577f4e487b7100000000000000000000000000000000000000000000000000000000600052603260045260246000fd5b90600052602060002090600402016001015460008481548110611484577f4e487b7100000000000000000000000000000000000000000000000000000000600052603260045260246000fd5b9060005260206000209060040201600101541190505b92915050565b600283106114d7577f4e487b7100000000000000000000000000000000000000000000000000000000600052600160045260246000fd5b60028360028110611511577f4e487b7100000000000000000000000000000000000000000000000000000000600052603260045260246000fd5b0180549050821061154b577f4e487b7100000000000000000000000000000000000000000000000000000000600052600160045260246000fd5b60028360028110611585577f4e487b7100000000000000000000000000000000000000000000000000000000600052603260045260246000fd5b018054905081106115bf577f4e487b7100000000000000000000000000000000000000000000000000000000600052600160045260246000fd5b808214156115f6577f4e487b7100000000000000000000000000000000000000000000000000000000600052600160045260246000fd5b600060028460028110611632577f4e487b7100000000000000000000000000000000000000000000000000000000600052603260045260246000fd5b01838154811061166b577f4e487b7100000000000000000000000000000000000000000000000000000000600052603260045260246000fd5b90600052602060002001549050600284600281106116b2577f4e487b7100000000000000000000000000000000000000000000000000000000600052603260045260246000fd5b0182815481106116eb577f4e487b7100000000000000000000000000000000000000000000000000000000600052603260045260246000fd5b906000526020600020015460028560028110611730577f4e487b7100000000000000000000000000000000000000000000000000000000600052603260045260246000fd5b018481548110611769577f4e487b7100000000000000000000000000000000000000000000000000000000600052603260045260246000fd5b906000526020600020018190555080600285600281106117b2577f4e487b7100000000000000000000000000000000000000000000000000000000600052603260045260246000fd5b0183815481106117eb577f4e487b7100000000000000000000000000000000000000000000000000000000600052603260045260246000fd5b906000526020600020018190555050505050565b600060028210611838577f4e487b7100000000000000000000000000000000000000000000000000000000600052600160045260246000fd5b600060028360028110611874577f4e487b7100000000000000000000000000000000000000000000000000000000600052603260045260246000fd5b0180549050149050919050565b6000600282106118ba577f4e487b7100000000000000000000000000000000000000000000000000000000600052600160045260246000fd5b6000600283600281106118f6577f4e487b7100000000000000000000000000000000000000000000000000000000600052603260045260246000fd5b01805490501161192f577f4e487b7100000000000000000000000000000000000000000000000000000000600052600160045260246000fd5b60006002836002811061196b577f4e487b7100000000000000000000000000000000000000000000000000000000600052603260045260246000fd5b016000815481106119a5577f4e487b7100000000000000000000000000000000000000000000000000000000600052603260045260246000fd5b9060005260206000200154815481106119e7577f4e487b7100000000000000000000000000000000000000000000000000000000600052603260045260246000fd5b9060005260206000209060040201600001549050919050565b60028110611a37577f4e487b7100000000000000000000000000000000000000000000000000000000600052600160045260246000fd5b611a40816117ff565b15611a74577f4e487b7100000000000000000000000000000000000000000000000000000000600052600160045260246000fd5b600160028260028110611ab0577f4e487b7100000000000000000000000000000000000000000000000000000000600052603260045260246000fd5b01805490501415611b475760028160028110611af5577f4e487b7100000000000000000000000000000000000000000000000000000000600052603260045260246000fd5b01805480611b2c577f4e487b7100000000000000000000000000000000000000000000000000000000600052603160045260246000fd5b60019003818190600052602060002001600090559055611f21565b611b9d816000600160028560028110611b89577f4e487b7100000000000000000000000000000000000000000000000000000000600052603260045260246000fd5b0180549050611b9891906127ec565b6114a0565b60028160028110611bd7577f4e487b7100000000000000000000000000000000000000000000000000000000600052603260045260246000fd5b01805480611c0e577f4e487b7100000000000000000000000000000000000000000000000000000000600052603160045260246000fd5b60019003818190600052602060002001600090559055600080600190505b60028360028110611c66577f4e487b7100000000000000000000000000000000000000000000000000000000600052603260045260246000fd5b0180549050811015611f1e5760028360028110611cac577f4e487b7100000000000000000000000000000000000000000000000000000000600052603260045260246000fd5b0180549050600182611cbe919061273c565b108015611dd75750611dd660028460028110611d03577f4e487b7100000000000000000000000000000000000000000000000000000000600052603260045260246000fd5b01600183611d11919061273c565b81548110611d48577f4e487b7100000000000000000000000000000000000000000000000000000000600052603260045260246000fd5b906000526020600020015460028560028110611d8d577f4e487b7100000000000000000000000000000000000000000000000000000000600052603260045260246000fd5b018381548110611dc6577f4e487b7100000000000000000000000000000000000000000000000000000000600052603260045260246000fd5b90600052602060002001546112a8565b5b15611deb578080611de79061285c565b9150505b611eef60028460028110611e28577f4e487b7100000000000000000000000000000000000000000000000000000000600052603260045260246000fd5b018381548110611e61577f4e487b7100000000000000000000000000000000000000000000000000000000600052603260045260246000fd5b906000526020600020015460028560028110611ea6577f4e487b7100000000000000000000000000000000000000000000000000000000600052603260045260246000fd5b018381548110611edf577f4e487b7100000000000000000000000000000000000000000000000000000000600052603260045260246000fd5b90600052602060002001546112a8565b15611ef957611f1e565b611f048383836114a0565b80915060018083901b611f17919061273c565b9050611c2c565b50505b50565b600060028210611f5d577f4e487b7100000000000000000000000000000000000000000000000000000000600052600160045260246000fd5b600060028360028110611f99577f4e487b7100000000000000000000000000000000000000000000000000000000600052603260045260246000fd5b018054905011611fd2577f4e487b7100000000000000000000000000000000000000000000000000000000600052600160045260246000fd5b60006002836002811061200e577f4e487b7100000000000000000000000000000000000000000000000000000000600052603260045260246000fd5b01600081548110612048577f4e487b7100000000000000000000000000000000000000000000000000000000600052603260045260246000fd5b90600052602060002001548154811061208a577f4e487b7100000000000000000000000000000000000000000000000000000000600052603260045260246000fd5b9060005260206000209060040201600101549050919050565b600282106120da577f4e487b7100000000000000000000000000000000000000000000000000000000600052600160045260246000fd5b600060028360028110612116577f4e487b7100000000000000000000000000000000000000000000000000000000600052603260045260246000fd5b01805490501161214f577f4e487b7100000000000000000000000000000000000000000000000000000000600052600160045260246000fd5b8060006002846002811061218c577f4e487b7100000000000000000000000000000000000000000000000000000000600052603260045260246000fd5b016000815481106121c6577f4e487b7100000000000000000000000000000000000000000000000000000000600052603260045260246000fd5b906000526020600020015481548110612208577f4e487b7100000000000000000000000000000000000000000000000000000000600052603260045260246000fd5b9060005260206000209060040201600001600082825461222891906127ec565b925050819055505050565b60006002821061226c577f4e487b7100000000000000000000000000000000000000000000000000000000600052600160045260246000fd5b6000600283600281106122a8577f4e487b7100000000000000000000000000000000000000000000000000000000600052603260045260246000fd5b0180549050116122e1577f4e487b7100000000000000000000000000000000000000000000000000000000600052600160045260246000fd5b60006002836002811061231d577f4e487b7100000000000000000000000000000000000000000000000000000000600052603260045260246000fd5b01600081548110612357577f4e487b7100000000000000000000000000000000000000000000000000000000600052603260045260246000fd5b906000526020600020015481548110612399577f4e487b7100000000000000000000000000000000000000000000000000000000600052603260045260246000fd5b906000526020600020906004020160020160009054906101000a900473ffffffffffffffffffffffffffffffffffffffff169050919050565b6000813590506123e1816129c4565b92915050565b6000813590506123f6816129db565b92915050565b60006020828403121561240e57600080fd5b600061241c848285016123d2565b91505092915050565b6000806040838503121561243857600080fd5b6000612446858286016123d2565b9250506020612457858286016123e7565b9150509250929050565b60006020828403121561247357600080fd5b6000612481848285016123e7565b91505092915050565b6000806040838503121561249d57600080fd5b60006124ab858286016123e7565b92505060206124bc858286016123e7565b9150509250929050565b6000806000606084860312156124db57600080fd5b60006124e9868287016123e7565b93505060206124fa868287016123e7565b925050604061250b868287016123e7565b9150509250925092565b60006125218383612617565b60208301905092915050565b600061253882612702565b612542818561271a565b935061254d836126f2565b8060005b8381101561257e5781516125658882612515565b97506125708361270d565b925050600181019050612551565b5085935050505092915050565b600061259860278361272b565b91506125a3826128d4565b604082019050919050565b60006125bb60278361272b565b91506125c682612923565b604082019050919050565b60006125de60168361272b565b91506125e982612972565b602082019050919050565b600061260160198361272b565b915061260c8261299b565b602082019050919050565b61262081612852565b82525050565b61262f81612852565b82525050565b6000602082019050818103600083015261264f818461252d565b905092915050565b600060208201905081810360008301526126708161258b565b9050919050565b60006020820190508181036000830152612690816125ae565b9050919050565b600060208201905081810360008301526126b0816125d1565b9050919050565b600060208201905081810360008301526126d0816125f4565b9050919050565b60006020820190506126ec6000830184612626565b92915050565b6000819050602082019050919050565b600081519050919050565b6000602082019050919050565b600082825260208201905092915050565b600082825260208201905092915050565b600061274782612852565b915061275283612852565b9250827fffffffffffffffffffffffffffffffffffffffffffffffffffffffffffffffff03821115612787576127866128a5565b5b828201905092915050565b600061279d82612852565b91506127a883612852565b9250817fffffffffffffffffffffffffffffffffffffffffffffffffffffffffffffffff04831182151516156127e1576127e06128a5565b5b828202905092915050565b60006127f782612852565b915061280283612852565b925082821015612815576128146128a5565b5b828203905092915050565b600061282b82612832565b9050919050565b600073ffffffffffffffffffffffffffffffffffffffff82169050919050565b6000819050919050565b600061286782612852565b91507fffffffffffffffffffffffffffffffffffffffffffffffffffffffffffffffff82141561289a576128996128a5565b5b600182019050919050565b7f4e487b7100000000000000000000000000000000000000000000000000000000600052601160045260246000fd5b7f70726f766964652076616c756520657175616c20746f2070726963652078207160008201527f75616e7469747900000000000000000000000000000000000000000000000000602082015250565b7f6f7574636f6d65206973206265747765656e2030202e2e2e204e554d5f4f555460008201527f434f4d45532d3100000000000000000000000000000000000000000000000000602082015250565b7f7072696365206d75737420626520706f73697469766500000000000000000000600082015250565b7f7175616e74697479206d75737420626520706f73697469766500000000000000600082015250565b6129cd81612820565b81146129d857600080fd5b50565b6129e481612852565b81146129ef57600080fd5b5056fea2646970667358221220b315e3bc545a3a7e9d901595dbf66fa1615c49dbb57fe1637365eb49c7aab0ce64736f6c63430008010033",
  "immutableReferences": {},
  "source": "// SPDX-License-Identifier: GPL-3.0\n\npragma solidity >=0.7.0 <0.9.0;\n\ncontract PredictionMarket {\n    uint constant NUM_OUTCOMES = 2;\n    uint constant INF = 1<<200;\n    uint constant CONTRACT_VALUE = 10 ether;\n    \n    struct Order {\n        uint quantity;\n        uint price;\n        address addr;\n        uint outcome;\n    }\n\n    Order[] orders;\n    mapping (address => uint[]) public all_orders;\n    uint[][NUM_OUTCOMES] orderbooks;\n    mapping (address => uint[NUM_OUTCOMES]) pos_size;\n    address oracle_address;\n    uint public temp;\n    \n    constructor(address oracle_addr) {\n        oracle_address = oracle_addr;\n    }\n    \n    // Additional functions for front end\n    function getOrders(address addr) public view returns(uint[] memory) {\n        return all_orders[addr];\n    }\n    function getBidQuant(uint id) public view returns(uint) {\n        return orders[id].quantity;\n    }\n    function getBidPrice(uint id) public view returns(uint) {\n        return orders[id].price;\n    }\n    function getBidOutcome(uint id) public view returns(uint) {\n        return orders[id].outcome;\n    }\n\n    function math_min(uint x, uint y) private returns (uint) {\n        return x >= y ? y : x;\n    }\n    function higher_priority(uint i, uint j) private returns (bool) {\n        assert(i < orders.length);\n        assert(j < orders.length);\n        assert(i != j);\n        if (orders[i].price == orders[j].price) return i < j;\n        return orders[i].price > orders[j].price;\n    }\n    // orderbook uses heaps\n    function orderbooks_swap(uint outcome, uint i, uint j) private {\n        assert(outcome < NUM_OUTCOMES);\n        assert(i < orderbooks[outcome].length);\n        assert(j < orderbooks[outcome].length);\n        assert(i != j);\n        uint temp = orderbooks[outcome][i];\n        orderbooks[outcome][i] = orderbooks[outcome][j];\n        orderbooks[outcome][j] = temp;\n    }\n    function orderbooks_add(uint outcome, uint id) private {\n        assert(id < orders.length);\n        assert(outcome < NUM_OUTCOMES);\n        assert(orders[id].outcome == outcome);\n        orderbooks[outcome].push(id);\n        uint i = orderbooks[outcome].length - 1;\n        while(i > 0) {\n            uint par_i = (i - 1) >> 1;\n            if (higher_priority(orderbooks[outcome][par_i], orderbooks[outcome][i])) break;\n            orderbooks_swap(outcome, par_i, i);\n            i = par_i;\n        }\n    }\n    function orderbooks_emp(uint outcome) private returns (bool){\n        assert(outcome < NUM_OUTCOMES);\n        return orderbooks[outcome].length == 0;\n    }\n    function orderbooks_top_quantity(uint outcome) private returns (uint) {\n        assert(outcome < NUM_OUTCOMES);\n        assert(orderbooks[outcome].length > 0);\n        return orders[orderbooks[outcome][0]].quantity;\n    }\n    function orderbooks_top_remove_quantity(uint outcome, uint delta) private {\n        assert(outcome < NUM_OUTCOMES);\n        assert(orderbooks[outcome].length > 0);\n        orders[orderbooks[outcome][0]].quantity -= delta;\n    }\n    function orderbooks_top_price(uint outcome) private returns (uint) {\n        assert(outcome < NUM_OUTCOMES);\n        assert(orderbooks[outcome].length > 0);\n        return orders[orderbooks[outcome][0]].price;\n    }\n    function orderbooks_top_address(uint outcome) private returns (address) {\n        assert(outcome < NUM_OUTCOMES);\n        assert(orderbooks[outcome].length > 0);\n        return orders[orderbooks[outcome][0]].addr;\n    }\n    function orderbooks_pop(uint outcome) private {\n        assert(outcome < NUM_OUTCOMES);\n        assert(!orderbooks_emp(outcome));\n        if (orderbooks[outcome].length == 1) {\n            orderbooks[outcome].pop();\n        } else {\n            orderbooks_swap(outcome, 0, orderbooks[outcome].length - 1);\n            orderbooks[outcome].pop();\n            \n            uint i = 0;\n            uint child_i = 1; \n            while(child_i < orderbooks[outcome].length) {\n              if (child_i + 1 < orderbooks[outcome].length && higher_priority(orderbooks[outcome][child_i + 1], orderbooks[outcome][child_i]))\n                child_i++;\n              if (higher_priority(orderbooks[outcome][i], orderbooks[outcome][child_i])) break;\n              orderbooks_swap(outcome, i, child_i);\n              i = child_i;\n              child_i = (i << 1) + 1;\n            }            \n        }\n    }\n    // matching engine\n    function try_matching() private returns (bool) {\n        for (uint outcome = 0; outcome < NUM_OUTCOMES; outcome++) {\n          while(!orderbooks_emp(outcome) && orderbooks_top_quantity(outcome) == 0)\n            orderbooks_pop(outcome);\n          assert(orderbooks_emp(outcome) || orderbooks_top_quantity(outcome) > 0);\n        }\n    \n        uint sum_prices = 0;\n        uint min_quantity = INF;\n    \n        for (uint outcome = 0; outcome < NUM_OUTCOMES; outcome++) if (!orderbooks_emp(outcome)) {\n          sum_prices += orderbooks_top_price(outcome);\n          min_quantity = math_min(min_quantity, orderbooks_top_quantity(outcome));\n        }\n    \n        if (sum_prices == 0 || min_quantity == INF) {\n          assert(sum_prices == 0 && min_quantity == INF);\n          return false;\n        }\n        if (sum_prices < CONTRACT_VALUE) {\n          return false;\n        }\n        \n        for (uint outcome = 0; outcome < NUM_OUTCOMES; outcome++) if (!orderbooks_emp(outcome)) {\n          orderbooks_top_remove_quantity(outcome, min_quantity);\n          pos_size[orderbooks_top_address(outcome)][outcome] += min_quantity;\n        }\n    \n        return true;\n    }\n    // submit a new bid for any outcome\n    // price is in ether\n    function bid(uint price, uint quantity, uint outcome) public payable returns (uint) {\n        price = price * 1e18;\n        require(price > 0, 'price must be positive');\n        require(quantity > 0, 'quantity must be positive');\n        require(outcome < NUM_OUTCOMES, 'outcome is between 0 ... NUM_OUTCOMES-1');\n        require(msg.value == price * quantity, 'provide value equal to price x quantity');\n    \n        uint id = orders.length;\n        orders.push(Order({\n            quantity: quantity,\n            price: price,\n            addr: msg.sender,\n            outcome: outcome}));\n        all_orders[msg.sender].push(id);\n        orderbooks_add(outcome, id);\n    \n        while(try_matching()) {}\n        \n        return id;\n    }\n    // cancel part of one of your unfilled orders\n    function cancel(uint id, uint quantity) public returns (uint) {\n        require(id < orders.length);\n        require(orders[id].addr == msg.sender);\n        \n        quantity = math_min(quantity, orders[id].quantity);\n        orders[id].quantity -= quantity;\n        uint to_refund = orders[id].price * quantity;\n        \n        assert(address(this).balance >= to_refund);\n        payable(msg.sender).transfer(to_refund);\n        return to_refund;\n    }\n    // cancel all your unfilled orders\n    function cancelAll() public returns (uint) {\n        uint to_refund = 0;\n        for (uint i = 0; i < all_orders[msg.sender].length; i++)\n            to_refund += cancel(all_orders[msg.sender][i], INF);\n        return to_refund;\n    }\n    // redeem any money you won if you bet correctly\n    // call smart smart contarct to get winning outcome\n    function redeem(uint winner) public returns (uint) {\n        uint winning_outcome = winner;\n        require(winning_outcome < NUM_OUTCOMES);\n        uint winning_shares = pos_size[msg.sender][winning_outcome];\n        temp = pos_size[msg.sender][winning_outcome];\n        pos_size[msg.sender][winning_outcome] = 0;\n        uint winnings = winning_shares * CONTRACT_VALUE;\n        assert(address(this).balance >= winnings);\n        payable(msg.sender).transfer(winnings);\n        return winnings;\n    }\n\n    function returnTemp() public view returns (uint) {\n        return temp;\n    }\n}\n\ncontract Oracle1 {\n    uint NUM_OUTCOMES;\n    uint[3] private reports;\n    uint[3] private inputs;\n\n    // outcomers flexible\n    constructor(uint outcomes) {\n        NUM_OUTCOMES = outcomes;\n        inputs[0] = 0;\n        inputs[1] = 0;\n        inputs[2] = 0;\n    }\n\n    // determine winner through external oracles\n    function report1(uint won1) public {\n        require(won1 < NUM_OUTCOMES, \"Result out of bounds\");\n        require(inputs[0] == 0, \"Only one input permitted\");\n        inputs[0]++;\n        reports[0] = won1;\n    }\n\n    // ensure that can't change report after the fact\n    function report2(uint won2) public {\n        require(won2 < NUM_OUTCOMES, \"Result out of bounds\");\n        require(inputs[1] == 0, \"Only one input permitted\");\n        inputs[1]++;\n        reports[1] = won2;\n    }\n\n    function report3(uint won3) public {\n        require(won3 < NUM_OUTCOMES, \"Result out of bounds\");\n        require(inputs[2] == 0, \"Only one input permitted\");\n        inputs[2]++;\n        reports[2] = won3;\n    }\n\n    function clear() public {\n        reports[0] = 0;\n        reports[1] = 0;\n        reports[2] = 0;\n        inputs[0] = 0;\n        inputs[1] = 0;\n        inputs[2] = 0;\n    }\n\n    // most often as consensus - defaults to report1 if inconclusive\n    function winner(uint first, uint second, uint third) public returns(uint) {\n        uint modeValue;\n        uint[] memory count = new uint[](NUM_OUTCOMES); \n        \n        count[first]++;\n        count[second]++;\n        count[third]++;\n\n        if (count[0] > count[1]) {\n            modeValue = count[0];\n        }\n        else if (count[0] < count[1]) {\n            modeValue = count[1];\n        }\n        else {\n            modeValue = first;\n        }\n\n        clear();\n\n        return modeValue;\n    }       \n}",
  "sourcePath": "/Users/benshi/Documents/BettingApp2/contracts/PredictionMarket.sol",
  "compiler": {
    "name": "solc",
    "version": "0.8.1+commit.df193b15.Emscripten.clang"
  },
  "schemaVersion": "3.4.3",
  "updatedAt": "2021-12-02T22:22:30.520Z",
  "networkType": "ethereum",
  "devdoc": {
    "kind": "dev",
    "methods": {},
    "version": 1
  },
  "userdoc": {
    "kind": "user",
    "methods": {},
    "version": 1
  }
}