{
  "contractName": "PredictionMarket",
  "abi": [
    {
      "inputs": [
        {
          "internalType": "uint256",
          "name": "price",
          "type": "uint256"
        },
        {
          "internalType": "uint256",
          "name": "quantity",
          "type": "uint256"
        },
        {
          "internalType": "uint256",
          "name": "outcome",
          "type": "uint256"
        }
      ],
      "name": "bid",
      "outputs": [
        {
          "internalType": "uint256",
          "name": "",
          "type": "uint256"
        }
      ],
      "stateMutability": "payable",
      "type": "function",
      "payable": true
    },
    {
      "inputs": [
        {
          "internalType": "uint256",
          "name": "id",
          "type": "uint256"
        },
        {
          "internalType": "uint256",
          "name": "quantity",
          "type": "uint256"
        }
      ],
      "name": "cancel",
      "outputs": [
        {
          "internalType": "uint256",
          "name": "",
          "type": "uint256"
        }
      ],
      "stateMutability": "nonpayable",
      "type": "function"
    },
    {
      "inputs": [],
      "name": "cancelAll",
      "outputs": [
        {
          "internalType": "uint256",
          "name": "",
          "type": "uint256"
        }
      ],
      "stateMutability": "nonpayable",
      "type": "function"
    },
    {
      "inputs": [
        {
          "internalType": "uint256",
          "name": "winning_outcome",
          "type": "uint256"
        }
      ],
      "name": "redeem",
      "outputs": [
        {
          "internalType": "uint256",
          "name": "",
          "type": "uint256"
        }
      ],
      "stateMutability": "nonpayable",
      "type": "function"
    }
  ],
  "bytecode": "0x608060405234801561001057600080fd5b5061245a806100206000396000f3fe60806040526004361061003e5760003560e01c8062efa8951461004357806318cb2b18146100805780632ac9bf09146100ab578063db006a75146100db575b600080fd5b34801561004f57600080fd5b5061006a60048036038101906100659190611fe5565b610118565b604051610077919061218b565b60405180910390f35b34801561008c57600080fd5b50610095610369565b6040516100a2919061218b565b60405180910390f35b6100c560048036038101906100c09190612021565b6104f6565b6040516100d2919061218b565b60405180910390f35b3480156100e757600080fd5b5061010260048036038101906100fd9190611fbc565b61076d565b60405161010f919061218b565b60405180910390f35b60008080549050831061012a57600080fd5b3373ffffffffffffffffffffffffffffffffffffffff166000848154811061017b577f4e487b7100000000000000000000000000000000000000000000000000000000600052603260045260246000fd5b906000526020600020906004020160020160009054906101000a900473ffffffffffffffffffffffffffffffffffffffff1673ffffffffffffffffffffffffffffffffffffffff16146101cd57600080fd5b610222826000858154811061020b577f4e487b7100000000000000000000000000000000000000000000000000000000600052603260045260246000fd5b906000526020600020906004020160000154610910565b9150816000848154811061025f577f4e487b7100000000000000000000000000000000000000000000000000000000600052603260045260246000fd5b9060005260206000209060040201600001600082825461027f9190612267565b92505081905550600082600085815481106102c3577f4e487b7100000000000000000000000000000000000000000000000000000000600052603260045260246000fd5b9060005260206000209060040201600101546102df919061220d565b905080471015610318577f4e487b7100000000000000000000000000000000000000000000000000000000600052600160045260246000fd5b3373ffffffffffffffffffffffffffffffffffffffff166108fc829081150290604051600060405180830381858888f1935050505015801561035e573d6000803e3d6000fd5b508091505092915050565b6000806000905060005b600160003373ffffffffffffffffffffffffffffffffffffffff1673ffffffffffffffffffffffffffffffffffffffff1681526020019081526020016000208054905081101561047057610450600160003373ffffffffffffffffffffffffffffffffffffffff1673ffffffffffffffffffffffffffffffffffffffff1681526020019081526020016000208281548110610437577f4e487b7100000000000000000000000000000000000000000000000000000000600052603260045260246000fd5b9060005260206000200154670de0b6b3a7640000610118565b8261045b91906121b7565b91508080610468906122a5565b915050610373565b50804710156104a8577f4e487b7100000000000000000000000000000000000000000000000000000000600052600160045260246000fd5b3373ffffffffffffffffffffffffffffffffffffffff166108fc829081150290604051600060405180830381858888f193505050501580156104ee573d6000803e3d6000fd5b508091505090565b600080841161053a576040517f08c379a00000000000000000000000000000000000000000000000000000000081526004016105319061214b565b60405180910390fd5b6000831161057d576040517f08c379a00000000000000000000000000000000000000000000000000000000081526004016105749061216b565b60405180910390fd5b600282106105c0576040517f08c379a00000000000000000000000000000000000000000000000000000000081526004016105b79061212b565b60405180910390fd5b82846105cc919061220d565b341461060d576040517f08c379a00000000000000000000000000000000000000000000000000000000081526004016106049061210b565b60405180910390fd5b600080805490509050600060405180608001604052808681526020018781526020013373ffffffffffffffffffffffffffffffffffffffff168152602001858152509080600181540180825580915050600190039060005260206000209060040201600090919091909150600082015181600001556020820151816001015560408201518160020160006101000a81548173ffffffffffffffffffffffffffffffffffffffff021916908373ffffffffffffffffffffffffffffffffffffffff160217905550606082015181600301555050600160003373ffffffffffffffffffffffffffffffffffffffff1673ffffffffffffffffffffffffffffffffffffffff16815260200190815260200160002081908060018154018082558091505060019003906000526020600020016000909190919091505561074f838261092a565b5b610758610c14565b1561076257610750565b809150509392505050565b60006002821061077c57600080fd5b6000600460003373ffffffffffffffffffffffffffffffffffffffff1673ffffffffffffffffffffffffffffffffffffffff16815260200190815260200160002083600281106107f5577f4e487b7100000000000000000000000000000000000000000000000000000000600052603260045260246000fd5b015490506000600460003373ffffffffffffffffffffffffffffffffffffffff1673ffffffffffffffffffffffffffffffffffffffff1681526020019081526020016000208460028110610872577f4e487b7100000000000000000000000000000000000000000000000000000000600052603260045260246000fd5b01819055506000600182610886919061220d565b9050804710156108bf577f4e487b7100000000000000000000000000000000000000000000000000000000600052600160045260246000fd5b3373ffffffffffffffffffffffffffffffffffffffff166108fc829081150290604051600060405180830381858888f19350505050158015610905573d6000803e3d6000fd5b508092505050919050565b6000818310156109205782610922565b815b905092915050565b6000805490508110610965577f4e487b7100000000000000000000000000000000000000000000000000000000600052600160045260246000fd5b6002821061099c577f4e487b7100000000000000000000000000000000000000000000000000000000600052600160045260246000fd5b81600082815481106109d7577f4e487b7100000000000000000000000000000000000000000000000000000000600052603260045260246000fd5b90600052602060002090600402016003015414610a1d577f4e487b7100000000000000000000000000000000000000000000000000000000600052600160045260246000fd5b60028260028110610a57577f4e487b7100000000000000000000000000000000000000000000000000000000600052603260045260246000fd5b018190806001815401808255809150506001900390600052602060002001600090919091909150556000600160028460028110610abd577f4e487b7100000000000000000000000000000000000000000000000000000000600052603260045260246000fd5b0180549050610acc9190612267565b90505b6000811115610c0f57600060018083610ae89190612267565b901c9050610bf060028560028110610b29577f4e487b7100000000000000000000000000000000000000000000000000000000600052603260045260246000fd5b018281548110610b62577f4e487b7100000000000000000000000000000000000000000000000000000000600052603260045260246000fd5b906000526020600020015460028660028110610ba7577f4e487b7100000000000000000000000000000000000000000000000000000000600052603260045260246000fd5b018481548110610be0577f4e487b7100000000000000000000000000000000000000000000000000000000600052603260045260246000fd5b9060005260206000200154610e7d565b15610bfb5750610c0f565b610c06848284611075565b80915050610acf565b505050565b600080600090505b6002811015610cb9575b610c2f816113d4565b158015610c4457506000610c4282611456565b145b15610c5757610c52816115d5565b610c26565b610c60816113d4565b80610c7357506000610c7182611456565b115b610ca6577f4e487b7100000000000000000000000000000000000000000000000000000000600052600160045260246000fd5b8080610cb1906122a5565b915050610c1c565b50600080670de0b6b3a7640000905060005b6002811015610d1f57610cdd816113d4565b610d0c57610cea81611af9565b83610cf591906121b7565b9250610d0982610d0483611456565b610910565b91505b8080610d17906122a5565b915050610ccb565b506000821480610d365750670de0b6b3a764000081145b15610d9057600082148015610d525750670de0b6b3a764000081145b610d85577f4e487b7100000000000000000000000000000000000000000000000000000000600052600160045260246000fd5b600092505050610e7a565b6001821015610da457600092505050610e7a565b60005b6002811015610e7257610db9816113d4565b610e5f57610dc78183611c78565b8160046000610dd584611e08565b73ffffffffffffffffffffffffffffffffffffffff1673ffffffffffffffffffffffffffffffffffffffff1681526020019081526020016000208260028110610e47577f4e487b7100000000000000000000000000000000000000000000000000000000600052603260045260246000fd5b016000828254610e5791906121b7565b925050819055505b8080610e6a906122a5565b915050610da7565b506001925050505b90565b600080805490508310610eb9577f4e487b7100000000000000000000000000000000000000000000000000000000600052600160045260246000fd5b6000805490508210610ef4577f4e487b7100000000000000000000000000000000000000000000000000000000600052600160045260246000fd5b81831415610f2b577f4e487b7100000000000000000000000000000000000000000000000000000000600052600160045260246000fd5b60008281548110610f65577f4e487b7100000000000000000000000000000000000000000000000000000000600052603260045260246000fd5b90600052602060002090600402016001015460008481548110610fb1577f4e487b7100000000000000000000000000000000000000000000000000000000600052603260045260246000fd5b9060005260206000209060040201600101541415610fd357818310905061106f565b6000828154811061100d577f4e487b7100000000000000000000000000000000000000000000000000000000600052603260045260246000fd5b90600052602060002090600402016001015460008481548110611059577f4e487b7100000000000000000000000000000000000000000000000000000000600052603260045260246000fd5b9060005260206000209060040201600101541190505b92915050565b600283106110ac577f4e487b7100000000000000000000000000000000000000000000000000000000600052600160045260246000fd5b600283600281106110e6577f4e487b7100000000000000000000000000000000000000000000000000000000600052603260045260246000fd5b01805490508210611120577f4e487b7100000000000000000000000000000000000000000000000000000000600052600160045260246000fd5b6002836002811061115a577f4e487b7100000000000000000000000000000000000000000000000000000000600052603260045260246000fd5b01805490508110611194577f4e487b7100000000000000000000000000000000000000000000000000000000600052600160045260246000fd5b808214156111cb577f4e487b7100000000000000000000000000000000000000000000000000000000600052600160045260246000fd5b600060028460028110611207577f4e487b7100000000000000000000000000000000000000000000000000000000600052603260045260246000fd5b018381548110611240577f4e487b7100000000000000000000000000000000000000000000000000000000600052603260045260246000fd5b9060005260206000200154905060028460028110611287577f4e487b7100000000000000000000000000000000000000000000000000000000600052603260045260246000fd5b0182815481106112c0577f4e487b7100000000000000000000000000000000000000000000000000000000600052603260045260246000fd5b906000526020600020015460028560028110611305577f4e487b7100000000000000000000000000000000000000000000000000000000600052603260045260246000fd5b01848154811061133e577f4e487b7100000000000000000000000000000000000000000000000000000000600052603260045260246000fd5b90600052602060002001819055508060028560028110611387577f4e487b7100000000000000000000000000000000000000000000000000000000600052603260045260246000fd5b0183815481106113c0577f4e487b7100000000000000000000000000000000000000000000000000000000600052603260045260246000fd5b906000526020600020018190555050505050565b60006002821061140d577f4e487b7100000000000000000000000000000000000000000000000000000000600052600160045260246000fd5b600060028360028110611449577f4e487b7100000000000000000000000000000000000000000000000000000000600052603260045260246000fd5b0180549050149050919050565b60006002821061148f577f4e487b7100000000000000000000000000000000000000000000000000000000600052600160045260246000fd5b6000600283600281106114cb577f4e487b7100000000000000000000000000000000000000000000000000000000600052603260045260246000fd5b018054905011611504577f4e487b7100000000000000000000000000000000000000000000000000000000600052600160045260246000fd5b600060028360028110611540577f4e487b7100000000000000000000000000000000000000000000000000000000600052603260045260246000fd5b0160008154811061157a577f4e487b7100000000000000000000000000000000000000000000000000000000600052603260045260246000fd5b9060005260206000200154815481106115bc577f4e487b7100000000000000000000000000000000000000000000000000000000600052603260045260246000fd5b9060005260206000209060040201600001549050919050565b6002811061160c577f4e487b7100000000000000000000000000000000000000000000000000000000600052600160045260246000fd5b611615816113d4565b15611649577f4e487b7100000000000000000000000000000000000000000000000000000000600052600160045260246000fd5b600160028260028110611685577f4e487b7100000000000000000000000000000000000000000000000000000000600052603260045260246000fd5b0180549050141561171c57600281600281106116ca577f4e487b7100000000000000000000000000000000000000000000000000000000600052603260045260246000fd5b01805480611701577f4e487b7100000000000000000000000000000000000000000000000000000000600052603160045260246000fd5b60019003818190600052602060002001600090559055611af6565b61177281600060016002856002811061175e577f4e487b7100000000000000000000000000000000000000000000000000000000600052603260045260246000fd5b018054905061176d9190612267565b611075565b600281600281106117ac577f4e487b7100000000000000000000000000000000000000000000000000000000600052603260045260246000fd5b018054806117e3577f4e487b7100000000000000000000000000000000000000000000000000000000600052603160045260246000fd5b60019003818190600052602060002001600090559055600080600190505b6002836002811061183b577f4e487b7100000000000000000000000000000000000000000000000000000000600052603260045260246000fd5b0180549050811015611af35760028360028110611881577f4e487b7100000000000000000000000000000000000000000000000000000000600052603260045260246000fd5b018054905060018261189391906121b7565b1080156119ac57506119ab600284600281106118d8577f4e487b7100000000000000000000000000000000000000000000000000000000600052603260045260246000fd5b016001836118e691906121b7565b8154811061191d577f4e487b7100000000000000000000000000000000000000000000000000000000600052603260045260246000fd5b906000526020600020015460028560028110611962577f4e487b7100000000000000000000000000000000000000000000000000000000600052603260045260246000fd5b01838154811061199b577f4e487b7100000000000000000000000000000000000000000000000000000000600052603260045260246000fd5b9060005260206000200154610e7d565b5b156119c05780806119bc906122a5565b9150505b611ac4600284600281106119fd577f4e487b7100000000000000000000000000000000000000000000000000000000600052603260045260246000fd5b018381548110611a36577f4e487b7100000000000000000000000000000000000000000000000000000000600052603260045260246000fd5b906000526020600020015460028560028110611a7b577f4e487b7100000000000000000000000000000000000000000000000000000000600052603260045260246000fd5b018381548110611ab4577f4e487b7100000000000000000000000000000000000000000000000000000000600052603260045260246000fd5b9060005260206000200154610e7d565b15611ace57611af3565b611ad9838383611075565b80915060018083901b611aec91906121b7565b9050611801565b50505b50565b600060028210611b32577f4e487b7100000000000000000000000000000000000000000000000000000000600052600160045260246000fd5b600060028360028110611b6e577f4e487b7100000000000000000000000000000000000000000000000000000000600052603260045260246000fd5b018054905011611ba7577f4e487b7100000000000000000000000000000000000000000000000000000000600052600160045260246000fd5b600060028360028110611be3577f4e487b7100000000000000000000000000000000000000000000000000000000600052603260045260246000fd5b01600081548110611c1d577f4e487b7100000000000000000000000000000000000000000000000000000000600052603260045260246000fd5b906000526020600020015481548110611c5f577f4e487b7100000000000000000000000000000000000000000000000000000000600052603260045260246000fd5b9060005260206000209060040201600101549050919050565b60028210611caf577f4e487b7100000000000000000000000000000000000000000000000000000000600052600160045260246000fd5b600060028360028110611ceb577f4e487b7100000000000000000000000000000000000000000000000000000000600052603260045260246000fd5b018054905011611d24577f4e487b7100000000000000000000000000000000000000000000000000000000600052600160045260246000fd5b80600060028460028110611d61577f4e487b7100000000000000000000000000000000000000000000000000000000600052603260045260246000fd5b01600081548110611d9b577f4e487b7100000000000000000000000000000000000000000000000000000000600052603260045260246000fd5b906000526020600020015481548110611ddd577f4e487b7100000000000000000000000000000000000000000000000000000000600052603260045260246000fd5b90600052602060002090600402016000016000828254611dfd9190612267565b925050819055505050565b600060028210611e41577f4e487b7100000000000000000000000000000000000000000000000000000000600052600160045260246000fd5b600060028360028110611e7d577f4e487b7100000000000000000000000000000000000000000000000000000000600052603260045260246000fd5b018054905011611eb6577f4e487b7100000000000000000000000000000000000000000000000000000000600052600160045260246000fd5b600060028360028110611ef2577f4e487b7100000000000000000000000000000000000000000000000000000000600052603260045260246000fd5b01600081548110611f2c577f4e487b7100000000000000000000000000000000000000000000000000000000600052603260045260246000fd5b906000526020600020015481548110611f6e577f4e487b7100000000000000000000000000000000000000000000000000000000600052603260045260246000fd5b906000526020600020906004020160020160009054906101000a900473ffffffffffffffffffffffffffffffffffffffff169050919050565b600081359050611fb68161240d565b92915050565b600060208284031215611fce57600080fd5b6000611fdc84828501611fa7565b91505092915050565b60008060408385031215611ff857600080fd5b600061200685828601611fa7565b925050602061201785828601611fa7565b9150509250929050565b60008060006060848603121561203657600080fd5b600061204486828701611fa7565b935050602061205586828701611fa7565b925050604061206686828701611fa7565b9150509250925092565b600061207d6027836121a6565b91506120888261231d565b604082019050919050565b60006120a06027836121a6565b91506120ab8261236c565b604082019050919050565b60006120c36016836121a6565b91506120ce826123bb565b602082019050919050565b60006120e66019836121a6565b91506120f1826123e4565b602082019050919050565b6121058161229b565b82525050565b6000602082019050818103600083015261212481612070565b9050919050565b6000602082019050818103600083015261214481612093565b9050919050565b60006020820190508181036000830152612164816120b6565b9050919050565b60006020820190508181036000830152612184816120d9565b9050919050565b60006020820190506121a060008301846120fc565b92915050565b600082825260208201905092915050565b60006121c28261229b565b91506121cd8361229b565b9250827fffffffffffffffffffffffffffffffffffffffffffffffffffffffffffffffff03821115612202576122016122ee565b5b828201905092915050565b60006122188261229b565b91506122238361229b565b9250817fffffffffffffffffffffffffffffffffffffffffffffffffffffffffffffffff048311821515161561225c5761225b6122ee565b5b828202905092915050565b60006122728261229b565b915061227d8361229b565b9250828210156122905761228f6122ee565b5b828203905092915050565b6000819050919050565b60006122b08261229b565b91507fffffffffffffffffffffffffffffffffffffffffffffffffffffffffffffffff8214156122e3576122e26122ee565b5b600182019050919050565b7f4e487b7100000000000000000000000000000000000000000000000000000000600052601160045260246000fd5b7f70726f766964652076616c756520657175616c20746f2070726963652078207160008201527f75616e7469747900000000000000000000000000000000000000000000000000602082015250565b7f6f7574636f6d65206973206265747765656e2030202e2e2e204e554d5f4f555460008201527f434f4d45532d3100000000000000000000000000000000000000000000000000602082015250565b7f7072696365206d75737420626520706f73697469766500000000000000000000600082015250565b7f7175616e74697479206d75737420626520706f73697469766500000000000000600082015250565b6124168161229b565b811461242157600080fd5b5056fea2646970667358221220adceb8068d3953cfc5017747ecb464c35dc4a48cdd5c25774fe6c556d23a19ea64736f6c63430008010033",
  "immutableReferences": {},
  "source": "// SPDX-License-Identifier: GPL-3.0\n\npragma solidity >=0.7.0 <0.9.0;\n\ncontract PredictionMarket {\n    uint constant NUM_OUTCOMES = 2;\n    uint constant INF = 1 ether;\n    uint constant CONTRACT_VALUE = 1;\n    \n    struct Order {\n        uint quantity;\n        uint price;\n        address addr;\n        uint outcome;\n    }\n    Order[] orders;\n    mapping (address => uint[]) all_orders;\n    uint[][NUM_OUTCOMES] orderbooks;\n    mapping (address => uint[NUM_OUTCOMES]) pos_size;\n    \n    function math_min(uint x, uint y) private returns (uint) {\n        return x >= y ? y : x;\n    }\n    function higher_priority(uint i, uint j) private returns (bool) {\n        assert(i < orders.length);\n        assert(j < orders.length);\n        assert(i != j);\n        if (orders[i].price == orders[j].price) return i < j;\n        return orders[i].price > orders[j].price;\n    }\n    // orderbook uses heaps\n    function orderbooks_swap(uint outcome, uint i, uint j) private {\n        assert(outcome < NUM_OUTCOMES);\n        assert(i < orderbooks[outcome].length);\n        assert(j < orderbooks[outcome].length);\n        assert(i != j);\n        uint temp = orderbooks[outcome][i];\n        orderbooks[outcome][i] = orderbooks[outcome][j];\n        orderbooks[outcome][j] = temp;\n    }\n    function orderbooks_add(uint outcome, uint id) private {\n        assert(id < orders.length);\n        assert(outcome < NUM_OUTCOMES);\n        assert(orders[id].outcome == outcome);\n        orderbooks[outcome].push(id);\n        uint i = orderbooks[outcome].length - 1;\n        while(i > 0) {\n            uint par_i = (i - 1) >> 1;\n            if (higher_priority(orderbooks[outcome][par_i], orderbooks[outcome][i])) break;\n            orderbooks_swap(outcome, par_i, i);\n            i = par_i;\n        }\n    }\n    function orderbooks_emp(uint outcome) private returns (bool){\n        assert(outcome < NUM_OUTCOMES);\n        return orderbooks[outcome].length == 0;\n    }\n    function orderbooks_top_quantity(uint outcome) private returns (uint) {\n        assert(outcome < NUM_OUTCOMES);\n        assert(orderbooks[outcome].length > 0);\n        return orders[orderbooks[outcome][0]].quantity;\n    }\n    function orderbooks_top_remove_quantity(uint outcome, uint delta) private {\n        assert(outcome < NUM_OUTCOMES);\n        assert(orderbooks[outcome].length > 0);\n        orders[orderbooks[outcome][0]].quantity -= delta;\n    }\n    function orderbooks_top_price(uint outcome) private returns (uint) {\n        assert(outcome < NUM_OUTCOMES);\n        assert(orderbooks[outcome].length > 0);\n        return orders[orderbooks[outcome][0]].price;\n    }\n    function orderbooks_top_address(uint outcome) private returns (address) {\n        assert(outcome < NUM_OUTCOMES);\n        assert(orderbooks[outcome].length > 0);\n        return orders[orderbooks[outcome][0]].addr;\n    }\n    function orderbooks_pop(uint outcome) private {\n        assert(outcome < NUM_OUTCOMES);\n        assert(!orderbooks_emp(outcome));\n        if (orderbooks[outcome].length == 1) {\n            orderbooks[outcome].pop();\n        } else {\n            orderbooks_swap(outcome, 0, orderbooks[outcome].length - 1);\n            orderbooks[outcome].pop();\n            \n            uint i = 0;\n            uint child_i = 1; \n            while(child_i < orderbooks[outcome].length) {\n              if (child_i + 1 < orderbooks[outcome].length && higher_priority(orderbooks[outcome][child_i + 1], orderbooks[outcome][child_i]))\n                child_i++;\n              if (higher_priority(orderbooks[outcome][i], orderbooks[outcome][child_i])) break;\n              orderbooks_swap(outcome, i, child_i);\n              i = child_i;\n              child_i = (i << 1) + 1;\n            }            \n        }\n    }\n    // matching engine\n    function try_matching() private returns (bool) {\n        for (uint outcome = 0; outcome < NUM_OUTCOMES; outcome++) {\n          while(!orderbooks_emp(outcome) && orderbooks_top_quantity(outcome) == 0)\n            orderbooks_pop(outcome);\n          assert(orderbooks_emp(outcome) || orderbooks_top_quantity(outcome) > 0);\n        }\n    \n        uint sum_prices = 0;\n        uint min_quantity = INF;\n    \n        for (uint outcome = 0; outcome < NUM_OUTCOMES; outcome++) if (!orderbooks_emp(outcome)) {\n          sum_prices += orderbooks_top_price(outcome);\n          min_quantity = math_min(min_quantity, orderbooks_top_quantity(outcome));\n        }\n    \n        if (sum_prices == 0 || min_quantity == INF) {\n          assert(sum_prices == 0 && min_quantity == INF);\n          return false;\n        }\n        if (sum_prices < CONTRACT_VALUE) {\n          return false;\n        }\n        \n        for (uint outcome = 0; outcome < NUM_OUTCOMES; outcome++) if (!orderbooks_emp(outcome)) {\n          orderbooks_top_remove_quantity(outcome, min_quantity);\n          pos_size[orderbooks_top_address(outcome)][outcome] += min_quantity;\n        }\n    \n        return true;\n    }\n    // submit a new bid for any outcome\n    function bid(uint price, uint quantity, uint outcome) public payable returns (uint) {\n        require(price > 0, 'price must be positive');\n        require(quantity > 0, 'quantity must be positive');\n        require(outcome < NUM_OUTCOMES, 'outcome is between 0 ... NUM_OUTCOMES-1');\n        require(msg.value == price * quantity, 'provide value equal to price x quantity');\n    \n        uint id = orders.length;\n        orders.push(Order({\n            quantity: quantity,\n            price: price,\n            addr: msg.sender,\n            outcome: outcome}));\n        all_orders[msg.sender].push(id);\n        orderbooks_add(outcome, id);\n    \n        while(try_matching()) {}\n        \n        return id;\n    }\n    // cancel part of one of your unfilled orders\n    function cancel(uint id, uint quantity) public returns (uint) {\n        require(id < orders.length);\n        require(orders[id].addr == msg.sender);\n        \n        quantity = math_min(quantity, orders[id].quantity);\n        orders[id].quantity -= quantity;\n        uint to_refund = orders[id].price * quantity;\n        \n        assert(address(this).balance >= to_refund);\n        payable(msg.sender).transfer(to_refund);\n        return to_refund;\n    }\n    // cancel all your unfilled orders\n    function cancelAll() public returns (uint) {\n        uint to_refund = 0;\n        for (uint i = 0; i < all_orders[msg.sender].length; i++)\n            to_refund += cancel(all_orders[msg.sender][i], INF);\n        assert(address(this).balance >= to_refund);\n        payable(msg.sender).transfer(to_refund);\n        return to_refund;\n    }\n    // redeem any money you won if you bet correctly\n    function redeem(uint winning_outcome) public returns (uint) {\n        require(winning_outcome < NUM_OUTCOMES);\n        uint winning_shares = pos_size[msg.sender][winning_outcome];\n        pos_size[msg.sender][winning_outcome] = 0;\n        uint winnings = winning_shares * CONTRACT_VALUE;\n        assert(address(this).balance >= winnings);\n        payable(msg.sender).transfer(winnings);\n        return winnings;\n    }\n}",
  "sourcePath": "/Users/benshi/Documents/BettingApp2/contracts/PredictionMarket.sol",
  "compiler": {
    "name": "solc",
    "version": "0.8.1+commit.df193b15.Emscripten.clang"
  },
  "schemaVersion": "3.4.3",
  "updatedAt": "2021-11-28T21:59:50.671Z",
  "networkType": "ethereum",
  "devdoc": {
    "kind": "dev",
    "methods": {},
    "version": 1
  },
  "userdoc": {
    "kind": "user",
    "methods": {},
    "version": 1
  }
}