{
  "contractName": "PredictionMarket",
  "abi": [
    {
      "inputs": [],
      "name": "getLength",
      "outputs": [
        {
          "internalType": "uint256",
          "name": "",
          "type": "uint256"
        }
      ],
      "stateMutability": "nonpayable",
      "type": "function"
    },
    {
      "inputs": [],
      "name": "getOrders",
      "outputs": [
        {
          "internalType": "uint256[]",
          "name": "",
          "type": "uint256[]"
        }
      ],
      "stateMutability": "nonpayable",
      "type": "function"
    },
    {
      "inputs": [
        {
          "internalType": "uint256",
          "name": "price",
          "type": "uint256"
        },
        {
          "internalType": "uint256",
          "name": "quantity",
          "type": "uint256"
        },
        {
          "internalType": "uint256",
          "name": "outcome",
          "type": "uint256"
        }
      ],
      "name": "bid",
      "outputs": [
        {
          "internalType": "uint256",
          "name": "",
          "type": "uint256"
        }
      ],
      "stateMutability": "payable",
      "type": "function",
      "payable": true
    },
    {
      "inputs": [
        {
          "internalType": "uint256",
          "name": "id",
          "type": "uint256"
        },
        {
          "internalType": "uint256",
          "name": "quantity",
          "type": "uint256"
        }
      ],
      "name": "cancel",
      "outputs": [
        {
          "internalType": "uint256",
          "name": "",
          "type": "uint256"
        }
      ],
      "stateMutability": "nonpayable",
      "type": "function"
    },
    {
      "inputs": [],
      "name": "cancelAll",
      "outputs": [
        {
          "internalType": "uint256",
          "name": "",
          "type": "uint256"
        }
      ],
      "stateMutability": "nonpayable",
      "type": "function"
    },
    {
      "inputs": [
        {
          "internalType": "address",
          "name": "addr",
          "type": "address"
        }
      ],
      "name": "redeem",
      "outputs": [
        {
          "internalType": "uint256",
          "name": "",
          "type": "uint256"
        }
      ],
      "stateMutability": "nonpayable",
      "type": "function"
    }
  ],
  "bytecode": "0x608060405234801561001057600080fd5b506127af806100206000396000f3fe6080604052600436106100545760003560e01c8062efa8951461005957806318cb2b18146100965780632ac9bf09146100c15780632e2dc43e146100f157806395a2251f1461011c578063be1c766b14610159575b600080fd5b34801561006557600080fd5b50610080600480360381019061007b9190612211565b610184565b60405161008d919061245e565b60405180910390f35b3480156100a257600080fd5b506100ab6103d5565b6040516100b8919061245e565b60405180910390f35b6100db60048036038101906100d6919061224d565b610562565b6040516100e8919061245e565b60405180910390f35b3480156100fd57600080fd5b506101066107d9565b60405161011391906123bc565b60405180910390f35b34801561012857600080fd5b50610143600480360381019061013e91906121bf565b61086e565b604051610150919061245e565b60405180910390f35b34801561016557600080fd5b5061016e610a9c565b60405161017b919061245e565b60405180910390f35b60008080549050831061019657600080fd5b3373ffffffffffffffffffffffffffffffffffffffff16600084815481106101e7577f4e487b7100000000000000000000000000000000000000000000000000000000600052603260045260246000fd5b906000526020600020906004020160020160009054906101000a900473ffffffffffffffffffffffffffffffffffffffff1673ffffffffffffffffffffffffffffffffffffffff161461023957600080fd5b61028e8260008581548110610277577f4e487b7100000000000000000000000000000000000000000000000000000000600052603260045260246000fd5b906000526020600020906004020160000154610ae6565b915081600084815481106102cb577f4e487b7100000000000000000000000000000000000000000000000000000000600052603260045260246000fd5b906000526020600020906004020160000160008282546102eb9190612573565b925050819055506000826000858154811061032f577f4e487b7100000000000000000000000000000000000000000000000000000000600052603260045260246000fd5b90600052602060002090600402016001015461034b9190612519565b905080471015610384577f4e487b7100000000000000000000000000000000000000000000000000000000600052600160045260246000fd5b3373ffffffffffffffffffffffffffffffffffffffff166108fc829081150290604051600060405180830381858888f193505050501580156103ca573d6000803e3d6000fd5b508091505092915050565b6000806000905060005b600160003373ffffffffffffffffffffffffffffffffffffffff1673ffffffffffffffffffffffffffffffffffffffff168152602001908152602001600020805490508110156104dc576104bc600160003373ffffffffffffffffffffffffffffffffffffffff1673ffffffffffffffffffffffffffffffffffffffff16815260200190815260200160002082815481106104a3577f4e487b7100000000000000000000000000000000000000000000000000000000600052603260045260246000fd5b9060005260206000200154670de0b6b3a7640000610184565b826104c791906124c3565b915080806104d4906125e3565b9150506103df565b5080471015610514577f4e487b7100000000000000000000000000000000000000000000000000000000600052600160045260246000fd5b3373ffffffffffffffffffffffffffffffffffffffff166108fc829081150290604051600060405180830381858888f1935050505015801561055a573d6000803e3d6000fd5b508091505090565b60008084116105a6576040517f08c379a000000000000000000000000000000000000000000000000000000000815260040161059d9061241e565b60405180910390fd5b600083116105e9576040517f08c379a00000000000000000000000000000000000000000000000000000000081526004016105e09061243e565b60405180910390fd5b6002821061062c576040517f08c379a0000000000000000000000000000000000000000000000000000000008152600401610623906123fe565b60405180910390fd5b82846106389190612519565b3414610679576040517f08c379a0000000000000000000000000000000000000000000000000000000008152600401610670906123de565b60405180910390fd5b600080805490509050600060405180608001604052808681526020018781526020013373ffffffffffffffffffffffffffffffffffffffff168152602001858152509080600181540180825580915050600190039060005260206000209060040201600090919091909150600082015181600001556020820151816001015560408201518160020160006101000a81548173ffffffffffffffffffffffffffffffffffffffff021916908373ffffffffffffffffffffffffffffffffffffffff160217905550606082015181600301555050600160003373ffffffffffffffffffffffffffffffffffffffff1673ffffffffffffffffffffffffffffffffffffffff1681526020019081526020016000208190806001815401808255809150506001900390600052602060002001600090919091909150556107bb8382610b00565b5b6107c4610dea565b156107ce576107bc565b809150509392505050565b6060600160003373ffffffffffffffffffffffffffffffffffffffff1673ffffffffffffffffffffffffffffffffffffffff16815260200190815260200160002080548060200260200160405190810160405280929190818152602001828054801561086457602002820191906000526020600020905b815481526020019060010190808311610850575b5050505050905090565b60008082905060008173ffffffffffffffffffffffffffffffffffffffff1663dfbf53ae6040518163ffffffff1660e01b815260040160206040518083038186803b1580156108bc57600080fd5b505afa1580156108d0573d6000803e3d6000fd5b505050506040513d601f19601f820116820180604052508101906108f491906121e8565b90506002811061090357600080fd5b6000600460003373ffffffffffffffffffffffffffffffffffffffff1673ffffffffffffffffffffffffffffffffffffffff168152602001908152602001600020826002811061097c577f4e487b7100000000000000000000000000000000000000000000000000000000600052603260045260246000fd5b015490506000600460003373ffffffffffffffffffffffffffffffffffffffff1673ffffffffffffffffffffffffffffffffffffffff16815260200190815260200160002083600281106109f9577f4e487b7100000000000000000000000000000000000000000000000000000000600052603260045260246000fd5b01819055506000633b9aca0082610a109190612519565b905080471015610a49577f4e487b7100000000000000000000000000000000000000000000000000000000600052600160045260246000fd5b3373ffffffffffffffffffffffffffffffffffffffff166108fc829081150290604051600060405180830381858888f19350505050158015610a8f573d6000803e3d6000fd5b5080945050505050919050565b6000600160003373ffffffffffffffffffffffffffffffffffffffff1673ffffffffffffffffffffffffffffffffffffffff16815260200190815260200160002080549050905090565b600081831015610af65782610af8565b815b905092915050565b6000805490508110610b3b577f4e487b7100000000000000000000000000000000000000000000000000000000600052600160045260246000fd5b60028210610b72577f4e487b7100000000000000000000000000000000000000000000000000000000600052600160045260246000fd5b8160008281548110610bad577f4e487b7100000000000000000000000000000000000000000000000000000000600052603260045260246000fd5b90600052602060002090600402016003015414610bf3577f4e487b7100000000000000000000000000000000000000000000000000000000600052600160045260246000fd5b60028260028110610c2d577f4e487b7100000000000000000000000000000000000000000000000000000000600052603260045260246000fd5b018190806001815401808255809150506001900390600052602060002001600090919091909150556000600160028460028110610c93577f4e487b7100000000000000000000000000000000000000000000000000000000600052603260045260246000fd5b0180549050610ca29190612573565b90505b6000811115610de557600060018083610cbe9190612573565b901c9050610dc660028560028110610cff577f4e487b7100000000000000000000000000000000000000000000000000000000600052603260045260246000fd5b018281548110610d38577f4e487b7100000000000000000000000000000000000000000000000000000000600052603260045260246000fd5b906000526020600020015460028660028110610d7d577f4e487b7100000000000000000000000000000000000000000000000000000000600052603260045260246000fd5b018481548110610db6577f4e487b7100000000000000000000000000000000000000000000000000000000600052603260045260246000fd5b9060005260206000200154611056565b15610dd15750610de5565b610ddc84828461124e565b80915050610ca5565b505050565b600080600090505b6002811015610e8f575b610e05816115ad565b158015610e1a57506000610e188261162f565b145b15610e2d57610e28816117ae565b610dfc565b610e36816115ad565b80610e4957506000610e478261162f565b115b610e7c577f4e487b7100000000000000000000000000000000000000000000000000000000600052600160045260246000fd5b8080610e87906125e3565b915050610df2565b50600080670de0b6b3a7640000905060005b6002811015610ef557610eb3816115ad565b610ee257610ec081611cd2565b83610ecb91906124c3565b9250610edf82610eda8361162f565b610ae6565b91505b8080610eed906125e3565b915050610ea1565b506000821480610f0c5750670de0b6b3a764000081145b15610f6657600082148015610f285750670de0b6b3a764000081145b610f5b577f4e487b7100000000000000000000000000000000000000000000000000000000600052600160045260246000fd5b600092505050611053565b633b9aca00821015610f7d57600092505050611053565b60005b600281101561104b57610f92816115ad565b61103857610fa08183611e51565b8160046000610fae84611fe1565b73ffffffffffffffffffffffffffffffffffffffff1673ffffffffffffffffffffffffffffffffffffffff1681526020019081526020016000208260028110611020577f4e487b7100000000000000000000000000000000000000000000000000000000600052603260045260246000fd5b01600082825461103091906124c3565b925050819055505b8080611043906125e3565b915050610f80565b506001925050505b90565b600080805490508310611092577f4e487b7100000000000000000000000000000000000000000000000000000000600052600160045260246000fd5b60008054905082106110cd577f4e487b7100000000000000000000000000000000000000000000000000000000600052600160045260246000fd5b81831415611104577f4e487b7100000000000000000000000000000000000000000000000000000000600052600160045260246000fd5b6000828154811061113e577f4e487b7100000000000000000000000000000000000000000000000000000000600052603260045260246000fd5b9060005260206000209060040201600101546000848154811061118a577f4e487b7100000000000000000000000000000000000000000000000000000000600052603260045260246000fd5b90600052602060002090600402016001015414156111ac578183109050611248565b600082815481106111e6577f4e487b7100000000000000000000000000000000000000000000000000000000600052603260045260246000fd5b90600052602060002090600402016001015460008481548110611232577f4e487b7100000000000000000000000000000000000000000000000000000000600052603260045260246000fd5b9060005260206000209060040201600101541190505b92915050565b60028310611285577f4e487b7100000000000000000000000000000000000000000000000000000000600052600160045260246000fd5b600283600281106112bf577f4e487b7100000000000000000000000000000000000000000000000000000000600052603260045260246000fd5b018054905082106112f9577f4e487b7100000000000000000000000000000000000000000000000000000000600052600160045260246000fd5b60028360028110611333577f4e487b7100000000000000000000000000000000000000000000000000000000600052603260045260246000fd5b0180549050811061136d577f4e487b7100000000000000000000000000000000000000000000000000000000600052600160045260246000fd5b808214156113a4577f4e487b7100000000000000000000000000000000000000000000000000000000600052600160045260246000fd5b6000600284600281106113e0577f4e487b7100000000000000000000000000000000000000000000000000000000600052603260045260246000fd5b018381548110611419577f4e487b7100000000000000000000000000000000000000000000000000000000600052603260045260246000fd5b9060005260206000200154905060028460028110611460577f4e487b7100000000000000000000000000000000000000000000000000000000600052603260045260246000fd5b018281548110611499577f4e487b7100000000000000000000000000000000000000000000000000000000600052603260045260246000fd5b9060005260206000200154600285600281106114de577f4e487b7100000000000000000000000000000000000000000000000000000000600052603260045260246000fd5b018481548110611517577f4e487b7100000000000000000000000000000000000000000000000000000000600052603260045260246000fd5b90600052602060002001819055508060028560028110611560577f4e487b7100000000000000000000000000000000000000000000000000000000600052603260045260246000fd5b018381548110611599577f4e487b7100000000000000000000000000000000000000000000000000000000600052603260045260246000fd5b906000526020600020018190555050505050565b6000600282106115e6577f4e487b7100000000000000000000000000000000000000000000000000000000600052600160045260246000fd5b600060028360028110611622577f4e487b7100000000000000000000000000000000000000000000000000000000600052603260045260246000fd5b0180549050149050919050565b600060028210611668577f4e487b7100000000000000000000000000000000000000000000000000000000600052600160045260246000fd5b6000600283600281106116a4577f4e487b7100000000000000000000000000000000000000000000000000000000600052603260045260246000fd5b0180549050116116dd577f4e487b7100000000000000000000000000000000000000000000000000000000600052600160045260246000fd5b600060028360028110611719577f4e487b7100000000000000000000000000000000000000000000000000000000600052603260045260246000fd5b01600081548110611753577f4e487b7100000000000000000000000000000000000000000000000000000000600052603260045260246000fd5b906000526020600020015481548110611795577f4e487b7100000000000000000000000000000000000000000000000000000000600052603260045260246000fd5b9060005260206000209060040201600001549050919050565b600281106117e5577f4e487b7100000000000000000000000000000000000000000000000000000000600052600160045260246000fd5b6117ee816115ad565b15611822577f4e487b7100000000000000000000000000000000000000000000000000000000600052600160045260246000fd5b60016002826002811061185e577f4e487b7100000000000000000000000000000000000000000000000000000000600052603260045260246000fd5b018054905014156118f557600281600281106118a3577f4e487b7100000000000000000000000000000000000000000000000000000000600052603260045260246000fd5b018054806118da577f4e487b7100000000000000000000000000000000000000000000000000000000600052603160045260246000fd5b60019003818190600052602060002001600090559055611ccf565b61194b816000600160028560028110611937577f4e487b7100000000000000000000000000000000000000000000000000000000600052603260045260246000fd5b01805490506119469190612573565b61124e565b60028160028110611985577f4e487b7100000000000000000000000000000000000000000000000000000000600052603260045260246000fd5b018054806119bc577f4e487b7100000000000000000000000000000000000000000000000000000000600052603160045260246000fd5b60019003818190600052602060002001600090559055600080600190505b60028360028110611a14577f4e487b7100000000000000000000000000000000000000000000000000000000600052603260045260246000fd5b0180549050811015611ccc5760028360028110611a5a577f4e487b7100000000000000000000000000000000000000000000000000000000600052603260045260246000fd5b0180549050600182611a6c91906124c3565b108015611b855750611b8460028460028110611ab1577f4e487b7100000000000000000000000000000000000000000000000000000000600052603260045260246000fd5b01600183611abf91906124c3565b81548110611af6577f4e487b7100000000000000000000000000000000000000000000000000000000600052603260045260246000fd5b906000526020600020015460028560028110611b3b577f4e487b7100000000000000000000000000000000000000000000000000000000600052603260045260246000fd5b018381548110611b74577f4e487b7100000000000000000000000000000000000000000000000000000000600052603260045260246000fd5b9060005260206000200154611056565b5b15611b99578080611b95906125e3565b9150505b611c9d60028460028110611bd6577f4e487b7100000000000000000000000000000000000000000000000000000000600052603260045260246000fd5b018381548110611c0f577f4e487b7100000000000000000000000000000000000000000000000000000000600052603260045260246000fd5b906000526020600020015460028560028110611c54577f4e487b7100000000000000000000000000000000000000000000000000000000600052603260045260246000fd5b018381548110611c8d577f4e487b7100000000000000000000000000000000000000000000000000000000600052603260045260246000fd5b9060005260206000200154611056565b15611ca757611ccc565b611cb283838361124e565b80915060018083901b611cc591906124c3565b90506119da565b50505b50565b600060028210611d0b577f4e487b7100000000000000000000000000000000000000000000000000000000600052600160045260246000fd5b600060028360028110611d47577f4e487b7100000000000000000000000000000000000000000000000000000000600052603260045260246000fd5b018054905011611d80577f4e487b7100000000000000000000000000000000000000000000000000000000600052600160045260246000fd5b600060028360028110611dbc577f4e487b7100000000000000000000000000000000000000000000000000000000600052603260045260246000fd5b01600081548110611df6577f4e487b7100000000000000000000000000000000000000000000000000000000600052603260045260246000fd5b906000526020600020015481548110611e38577f4e487b7100000000000000000000000000000000000000000000000000000000600052603260045260246000fd5b9060005260206000209060040201600101549050919050565b60028210611e88577f4e487b7100000000000000000000000000000000000000000000000000000000600052600160045260246000fd5b600060028360028110611ec4577f4e487b7100000000000000000000000000000000000000000000000000000000600052603260045260246000fd5b018054905011611efd577f4e487b7100000000000000000000000000000000000000000000000000000000600052600160045260246000fd5b80600060028460028110611f3a577f4e487b7100000000000000000000000000000000000000000000000000000000600052603260045260246000fd5b01600081548110611f74577f4e487b7100000000000000000000000000000000000000000000000000000000600052603260045260246000fd5b906000526020600020015481548110611fb6577f4e487b7100000000000000000000000000000000000000000000000000000000600052603260045260246000fd5b90600052602060002090600402016000016000828254611fd69190612573565b925050819055505050565b60006002821061201a577f4e487b7100000000000000000000000000000000000000000000000000000000600052600160045260246000fd5b600060028360028110612056577f4e487b7100000000000000000000000000000000000000000000000000000000600052603260045260246000fd5b01805490501161208f577f4e487b7100000000000000000000000000000000000000000000000000000000600052600160045260246000fd5b6000600283600281106120cb577f4e487b7100000000000000000000000000000000000000000000000000000000600052603260045260246000fd5b01600081548110612105577f4e487b7100000000000000000000000000000000000000000000000000000000600052603260045260246000fd5b906000526020600020015481548110612147577f4e487b7100000000000000000000000000000000000000000000000000000000600052603260045260246000fd5b906000526020600020906004020160020160009054906101000a900473ffffffffffffffffffffffffffffffffffffffff169050919050565b60008135905061218f8161274b565b92915050565b6000813590506121a481612762565b92915050565b6000815190506121b981612762565b92915050565b6000602082840312156121d157600080fd5b60006121df84828501612180565b91505092915050565b6000602082840312156121fa57600080fd5b6000612208848285016121aa565b91505092915050565b6000806040838503121561222457600080fd5b600061223285828601612195565b925050602061224385828601612195565b9150509250929050565b60008060006060848603121561226257600080fd5b600061227086828701612195565b935050602061228186828701612195565b925050604061229286828701612195565b9150509250925092565b60006122a8838361239e565b60208301905092915050565b60006122bf82612489565b6122c981856124a1565b93506122d483612479565b8060005b838110156123055781516122ec888261229c565b97506122f783612494565b9250506001810190506122d8565b5085935050505092915050565b600061231f6027836124b2565b915061232a8261265b565b604082019050919050565b60006123426027836124b2565b915061234d826126aa565b604082019050919050565b60006123656016836124b2565b9150612370826126f9565b602082019050919050565b60006123886019836124b2565b915061239382612722565b602082019050919050565b6123a7816125d9565b82525050565b6123b6816125d9565b82525050565b600060208201905081810360008301526123d681846122b4565b905092915050565b600060208201905081810360008301526123f781612312565b9050919050565b6000602082019050818103600083015261241781612335565b9050919050565b6000602082019050818103600083015261243781612358565b9050919050565b600060208201905081810360008301526124578161237b565b9050919050565b600060208201905061247360008301846123ad565b92915050565b6000819050602082019050919050565b600081519050919050565b6000602082019050919050565b600082825260208201905092915050565b600082825260208201905092915050565b60006124ce826125d9565b91506124d9836125d9565b9250827fffffffffffffffffffffffffffffffffffffffffffffffffffffffffffffffff0382111561250e5761250d61262c565b5b828201905092915050565b6000612524826125d9565b915061252f836125d9565b9250817fffffffffffffffffffffffffffffffffffffffffffffffffffffffffffffffff04831182151516156125685761256761262c565b5b828202905092915050565b600061257e826125d9565b9150612589836125d9565b92508282101561259c5761259b61262c565b5b828203905092915050565b60006125b2826125b9565b9050919050565b600073ffffffffffffffffffffffffffffffffffffffff82169050919050565b6000819050919050565b60006125ee826125d9565b91507fffffffffffffffffffffffffffffffffffffffffffffffffffffffffffffffff8214156126215761262061262c565b5b600182019050919050565b7f4e487b7100000000000000000000000000000000000000000000000000000000600052601160045260246000fd5b7f70726f766964652076616c756520657175616c20746f2070726963652078207160008201527f75616e7469747900000000000000000000000000000000000000000000000000602082015250565b7f6f7574636f6d65206973206265747765656e2030202e2e2e204e554d5f4f555460008201527f434f4d45532d3100000000000000000000000000000000000000000000000000602082015250565b7f7072696365206d75737420626520706f73697469766500000000000000000000600082015250565b7f7175616e74697479206d75737420626520706f73697469766500000000000000600082015250565b612754816125a7565b811461275f57600080fd5b50565b61276b816125d9565b811461277657600080fd5b5056fea2646970667358221220f432065a6733aeef445d2dea74598ee15f87c74d568f3c5ee071542b482dd72964736f6c63430008010033",
  "immutableReferences": {},
  "source": "// SPDX-License-Identifier: GPL-3.0\n\npragma solidity >=0.7.0 <0.9.0;\n\ncontract PredictionMarket {\n    uint constant NUM_OUTCOMES = 2;\n    uint constant INF = 1 ether;\n    uint constant CONTRACT_VALUE = 1 gwei;\n    \n    struct Order {\n        uint quantity;\n        uint price;\n        address addr;\n        uint outcome;\n    }\n\n    Order[] orders;\n    mapping (address => uint[]) all_orders;\n    uint[][NUM_OUTCOMES] orderbooks;\n    mapping (address => uint[NUM_OUTCOMES]) pos_size;\n    \n    // Additional functions for front end functionality\n    function getLength() public returns (uint) {\n        return all_orders[msg.sender].length;\n    }\n    function getOrders() public returns (uint[] memory) {\n        return all_orders[msg.sender];\n    }\n\n    function math_min(uint x, uint y) private returns (uint) {\n        return x >= y ? y : x;\n    }\n    function higher_priority(uint i, uint j) private returns (bool) {\n        assert(i < orders.length);\n        assert(j < orders.length);\n        assert(i != j);\n        if (orders[i].price == orders[j].price) return i < j;\n        return orders[i].price > orders[j].price;\n    }\n    // orderbook uses heaps\n    function orderbooks_swap(uint outcome, uint i, uint j) private {\n        assert(outcome < NUM_OUTCOMES);\n        assert(i < orderbooks[outcome].length);\n        assert(j < orderbooks[outcome].length);\n        assert(i != j);\n        uint temp = orderbooks[outcome][i];\n        orderbooks[outcome][i] = orderbooks[outcome][j];\n        orderbooks[outcome][j] = temp;\n    }\n    function orderbooks_add(uint outcome, uint id) private {\n        assert(id < orders.length);\n        assert(outcome < NUM_OUTCOMES);\n        assert(orders[id].outcome == outcome);\n        orderbooks[outcome].push(id);\n        uint i = orderbooks[outcome].length - 1;\n        while(i > 0) {\n            uint par_i = (i - 1) >> 1;\n            if (higher_priority(orderbooks[outcome][par_i], orderbooks[outcome][i])) break;\n            orderbooks_swap(outcome, par_i, i);\n            i = par_i;\n        }\n    }\n    function orderbooks_emp(uint outcome) private returns (bool){\n        assert(outcome < NUM_OUTCOMES);\n        return orderbooks[outcome].length == 0;\n    }\n    function orderbooks_top_quantity(uint outcome) private returns (uint) {\n        assert(outcome < NUM_OUTCOMES);\n        assert(orderbooks[outcome].length > 0);\n        return orders[orderbooks[outcome][0]].quantity;\n    }\n    function orderbooks_top_remove_quantity(uint outcome, uint delta) private {\n        assert(outcome < NUM_OUTCOMES);\n        assert(orderbooks[outcome].length > 0);\n        orders[orderbooks[outcome][0]].quantity -= delta;\n    }\n    function orderbooks_top_price(uint outcome) private returns (uint) {\n        assert(outcome < NUM_OUTCOMES);\n        assert(orderbooks[outcome].length > 0);\n        return orders[orderbooks[outcome][0]].price;\n    }\n    function orderbooks_top_address(uint outcome) private returns (address) {\n        assert(outcome < NUM_OUTCOMES);\n        assert(orderbooks[outcome].length > 0);\n        return orders[orderbooks[outcome][0]].addr;\n    }\n    function orderbooks_pop(uint outcome) private {\n        assert(outcome < NUM_OUTCOMES);\n        assert(!orderbooks_emp(outcome));\n        if (orderbooks[outcome].length == 1) {\n            orderbooks[outcome].pop();\n        } else {\n            orderbooks_swap(outcome, 0, orderbooks[outcome].length - 1);\n            orderbooks[outcome].pop();\n            \n            uint i = 0;\n            uint child_i = 1; \n            while(child_i < orderbooks[outcome].length) {\n              if (child_i + 1 < orderbooks[outcome].length && higher_priority(orderbooks[outcome][child_i + 1], orderbooks[outcome][child_i]))\n                child_i++;\n              if (higher_priority(orderbooks[outcome][i], orderbooks[outcome][child_i])) break;\n              orderbooks_swap(outcome, i, child_i);\n              i = child_i;\n              child_i = (i << 1) + 1;\n            }            \n        }\n    }\n    // matching engine\n    function try_matching() private returns (bool) {\n        for (uint outcome = 0; outcome < NUM_OUTCOMES; outcome++) {\n          while(!orderbooks_emp(outcome) && orderbooks_top_quantity(outcome) == 0)\n            orderbooks_pop(outcome);\n          assert(orderbooks_emp(outcome) || orderbooks_top_quantity(outcome) > 0);\n        }\n    \n        uint sum_prices = 0;\n        uint min_quantity = INF;\n    \n        for (uint outcome = 0; outcome < NUM_OUTCOMES; outcome++) if (!orderbooks_emp(outcome)) {\n          sum_prices += orderbooks_top_price(outcome);\n          min_quantity = math_min(min_quantity, orderbooks_top_quantity(outcome));\n        }\n    \n        if (sum_prices == 0 || min_quantity == INF) {\n          assert(sum_prices == 0 && min_quantity == INF);\n          return false;\n        }\n        if (sum_prices < CONTRACT_VALUE) {\n          return false;\n        }\n        \n        for (uint outcome = 0; outcome < NUM_OUTCOMES; outcome++) if (!orderbooks_emp(outcome)) {\n          orderbooks_top_remove_quantity(outcome, min_quantity);\n          pos_size[orderbooks_top_address(outcome)][outcome] += min_quantity;\n        }\n    \n        return true;\n    }\n    // submit a new bid for any outcome\n    function bid(uint price, uint quantity, uint outcome) public payable returns (uint) {\n        require(price > 0, 'price must be positive');\n        require(quantity > 0, 'quantity must be positive');\n        require(outcome < NUM_OUTCOMES, 'outcome is between 0 ... NUM_OUTCOMES-1');\n        require(msg.value == price * quantity, 'provide value equal to price x quantity');\n    \n        uint id = orders.length;\n        orders.push(Order({\n            quantity: quantity,\n            price: price,\n            addr: msg.sender,\n            outcome: outcome}));\n        all_orders[msg.sender].push(id);\n        orderbooks_add(outcome, id);\n    \n        while(try_matching()) {}\n        \n        return id;\n    }\n    // cancel part of one of your unfilled orders\n    function cancel(uint id, uint quantity) public returns (uint) {\n        require(id < orders.length);\n        require(orders[id].addr == msg.sender);\n        \n        quantity = math_min(quantity, orders[id].quantity);\n        orders[id].quantity -= quantity;\n        uint to_refund = orders[id].price * quantity;\n        \n        assert(address(this).balance >= to_refund);\n        payable(msg.sender).transfer(to_refund);\n        return to_refund;\n    }\n    // cancel all your unfilled orders\n    function cancelAll() public returns (uint) {\n        uint to_refund = 0;\n        for (uint i = 0; i < all_orders[msg.sender].length; i++)\n            to_refund += cancel(all_orders[msg.sender][i], INF);\n        assert(address(this).balance >= to_refund);\n        payable(msg.sender).transfer(to_refund);\n        return to_refund;\n    }\n\n    // redeem any money you won if you bet correctly\n    // call smart smart contarct to get winning outcome\n    function redeem(address addr) public returns (uint) {\n        Oracle1 oracle = Oracle1(addr);\n        uint winning_outcome = oracle.winner();\n        require(winning_outcome < NUM_OUTCOMES);\n        uint winning_shares = pos_size[msg.sender][winning_outcome];\n        pos_size[msg.sender][winning_outcome] = 0;\n        uint winnings = winning_shares * CONTRACT_VALUE;\n        assert(address(this).balance >= winnings);\n        payable(msg.sender).transfer(winnings);\n        return winnings;\n    }\n}\n\nabstract contract Oracle1 {\n    function report1(uint won1) external virtual;\n    function report2(uint won2) external virtual;\n    function report3(uint won3) external virtual;\n    function clear() external virtual;\n    function winner() external virtual view returns(uint);\n}",
  "sourcePath": "/Users/benshi/Documents/BettingApp2/contracts/PredictionMarket.sol",
  "compiler": {
    "name": "solc",
    "version": "0.8.1+commit.df193b15.Emscripten.clang"
  },
  "schemaVersion": "3.4.3",
  "updatedAt": "2021-12-01T21:38:23.966Z",
  "networkType": "ethereum",
  "devdoc": {
    "kind": "dev",
    "methods": {},
    "version": 1
  },
  "userdoc": {
    "kind": "user",
    "methods": {},
    "version": 1
  }
}